:020000040800F2
:10000000900C002081160008891600088B16000845
:100010008D1600088F1600089116000800000000D9
:10002000000000000000000000000000931600081F
:1000300095160008000000009716000899160008A1
:100040009B1600089B1600089B1600089B160008CC
:100050009B1600089B160008470B00089B1600081B
:100060009B160008BF0B0008150C00089B16000823
:100070009B1600089B1600089B1600089B1600089C
:100080009B1600089B1600089B1600089B1600088C
:100090009B1600089B1600089B1600089B1600087C
:1000A0009B1600089B1600089B1600089B1600086C
:1000B000670C0008451200089B1600089B160008F4
:1000C0009B1600089B1600089B1600089B1600084C
:1000D0009B160008F71500089B1600089B160008E1
:1000E0009B1600089B1600089B1600089B1600082C
:1000F0009B1600089B1600089B1600089B1600081C
:100100009B1600089B1600089B1600089B1600080B
:100110009B1600089B1600089B1600089B160008FB
:100120009B1600089B1600089B1600089B160008EB
:1001300000F002F800F03AF80AA090E8000C8244BF
:100140008344AAF10107DA4501D100F02FF8AFF29C
:10015000090EBAE80F0013F0010F18BFFB1A43F0A5
:1001600001031847BC5E0000DC5E0000103A24BFAB
:1001700078C878C1FAD8520724BF30C830C144BF0C
:1001800004680C607047000000230024002500264E
:10019000103A28BF78C1FBD8520728BF30C148BFEA
:1001A0000B6070471FB51FBD10B510BD04F0D7FC24
:1001B0001146FFF7F7FF00F016F904F0F5FC03B461
:1001C000FFF7F2FF03BC01F0BBF9000070B5054674
:1001D00000244FF6FF70FE49088000BF07E0FC488E
:1001E00002882146284600F057FB601CC4B2C92C87
:1001F000F5DB1F20F649088070BD08B54FF4A060FC
:1002000001F05EFA06208DF8000002208DF8010052
:1002100000208DF8020001208DF80300684601F0EF
:1002200054FA09208DF8000002208DF80100012009
:100230008DF802008DF80300684601F046FA0A20A6
:100240008DF8000002208DF801008DF802000120D9
:100250008DF80300684601F038FA1C208DF8000084
:1002600000208DF8010003208DF8020001208DF898
:100270000300684601F029FA1D208DF800000020D7
:100280008DF8010003208DF8020001208DF8030095
:10029000684601F01AFA08BD10B50121202001F0CE
:1002A00099FD0121084601F0A2FD0121022001F083
:1002B0009EFD0121C80201F08DFD0121452001F0C4
:1002C00089FD0121480201F085FD4FF4004001F055
:1002D000E5FC0121084601F070FD10BD08B50420C1
:1002E000ADF8000003208DF8020004208DF8030013
:1002F0006946B84801F0B2FA0420ADF800000320C6
:100300008DF8020000208DF803006946B24801F024
:10031000A5FA1820ADF8000003208DF8020048204F
:100320008DF803006946AD4801F098FA0120ADF858
:10033000000003208DF8020028208DF80300694694
:10034000A54801F08BFA4FF48070ADF8000003204F
:100350008DF8020018208DF8030069469E4801F0D0
:100360007DFA0820ADF8000003208DF8020010206F
:100370008DF803006946984801F070FA1020ADF836
:10038000000003208DF8020010208DF8030069465C
:10039000914801F063FA2020ADF8000003208DF8A9
:1003A000020010208DF8030069468B4801F056FAD0
:1003B0004020ADF8000003208DF8020010208DF8D9
:1003C00003006946844801F049FA8020ADF8000036
:1003D00003208DF8020010208DF8030069467E4846
:1003E00001F03CFA08BD0EB501F040F8FFF754FFEC
:1003F00003F04CFD03F0F7FD4FF6FF7003F0BAFF7A
:10040000FFF7FBFEFFF76AFF00F03EF900F063FB29
:1004100004F0ADFA00F0B7FA04F04BFA04F051FA28
:1004200004F0CBFA04F044FB6D49088029E16D48E3
:1004300000886D49088095E06C486B49098830F860
:10044000110040F6E44100FB01F4E01704EB10500A
:10045000001300EBC00101EB00106549098890FB17
:10046000F1F5284605F05CF8624908605F495E488E
:100470000088401C31F8100040F6E44100FB01F414
:10048000E01704EB1050001300EBC00101EB00106B
:100490005749098890FBF1F5284605F041F856497F
:1004A0000860514909884F4A1288891A88B2FFF7B3
:1004B0008DFE52494F48006805F0DDF802D24F48E2
:1004C0004C49086000214B48006805F055F802D2FD
:1004D00000204849086049494748006805F0CBF8C2
:1004E00002D246484449086000214348006805F0AC
:1004F00043F802D20020404908603E48006804F0FA
:10050000EFFF84B238490988364A1288891A88B2BE
:100510002F490A88214600F0BFF93748006804F0E7
:10052000DFFF84B23348006804F0DAFF85B2284860
:1005300000882D49009009882A4B1B88C91A491C3C
:100540008AB229490988274B1B88C91A88B22346D1
:10055000294600F0ADF900F0C1F923480088401C9D
:1005600021490880204801881E48008800F59670BF
:100570008142FFF661AF1A48008842F2107190FB89
:10058000F1F03030C0B28DF804001548008890FBBF
:10059000F1F201FB12004FF47A7190FBF1F0303070
:1005A000C0B28DF805000E48008842F2107190FB31
:1005B000F1F201FB12004FF47A7190FBF1F201FBB2
:1005C0001200642190FBF1F03030C0B218E000005E
:1005D00056000020001401400008014000180140AE
:1005E0001E00002060000020000000202C010020E0
:1005F0001C000020040000200800002000004843E8
:100600008DF806001F48008842F2107190FBF1F24D
:1006100001FB12004FF47A7190FBF1F201FB120022
:10062000642190FBF1F201FB12000A2190FBF1F032
:100630003030C0B28DF807001248008842F21071C5
:1006400090FBF1F201FB12004FF47A7190FBF1F292
:1006500001FB1200642190FBF1F201FB12000A2160
:1006600090FBF1F201FB12003030C0B28DF80800AF
:1006700000208DF8090004F0A0F904F019FA0149EE
:100680000880D4E61E00002010B50821FE4801F0C5
:1006900094F91021FC4801F090F92021FA4801F06A
:1006A0008CF94021F84801F088F98021F64801F0E2
:1006B00084F910BD10B50821F34801F07CF98021C0
:1006C000F14801F078F91021EF4801F076F9202186
:1006D000ED4801F072F94021EB4801F06EF910BDD0
:1006E00010B50821E84801F066F98021E64801F0DC
:1006F00062F91021E44801F060F92021E24801F09C
:100700005CF94021E04801F056F910BD10B5082110
:10071000DD4801F050F98021DB4801F04CF910214F
:10072000D94801F04AF92021D74801F044F9402185
:10073000D54801F042F910BD10B50821D24801F0AA
:100740003AF98021D04801F036F91021CE4801F065
:1007500034F92021CC4801F02EF94021CA4801F09B
:100760002AF910BD10B50821C74801F024F98021ED
:10077000C54801F020F91021C34801F01CF92021DF
:10078000C14801F01AF94021BF4801F014F910BD29
:1007900010B50821BC4801F00EF98021BA4801F0DB
:1007A0000AF91021B84801F006F92021B64801F0F5
:1007B00002F94021B44801F000F910BD10B508213C
:1007C000B14801F0F8F88021AF4801F0F4F81021A9
:1007D000AD4801F0F0F82021AB4801F0ECF84021E1
:1007E000A94801F0E8F810BD10B50821A64801F0AD
:1007F000E4F88021A44801F0DEF81021A24801F0BD
:10080000DAF82021A04801F0D8F840219E4801F0F4
:10081000D2F810BD10B508219B4801F0CEF8802118
:10082000994801F0C8F81021974801F0C4F8202138
:10083000954801F0C0F84021934801F0BEF810BD82
:1008400010B50821904801F0B8F880218E4801F0D9
:10085000B2F810218C4801F0AEF820218A4801F04E
:10086000AAF84021884801F0A6F810BD10B508216B
:10087000854801F0A2F88021834801F09EF81021FC
:10088000814801F098F820217F4801F096F8402136
:100890007D4801F090F810BD70B505460C4616462F
:1008A000C4F1C80081B23246284603F07DFD70BD18
:1008B0002DE9F84306460C4617461D46DDF8208014
:1008C000C5F1C80083B2C4F1C80081B23A463046CF
:1008D000CDF8008003F076FDBDE8F88338B500253B
:1008E00000244FF6E0706949088000BF0EE0002543
:1008F00007E06648028829462046FFF7CDFF681DBD
:1009000085B2C82DF5DB04F11E0084B2B4F5967FE4
:10091000EDDB00240FE0002507E05C48028821465B
:100920002846FFF7B9FF681D85B2B5F5967FF4DB61
:1009300004F1190084B2C82CEDDB4FF6E070534986
:10094000088008460088C8234FF496720021009062
:10095000084603F08DFD4D48008864234FF49672DD
:1009600019460090002003F02DFD48480088C82358
:10097000962200210090104603F024FD4FF47840A9
:100980004249088038BD08B54FF6E0703F490880FD
:100990004FF6FF7003F0EEFC3C480088C8234FF48C
:1009A000967200210090084603F062FD37480088E7
:1009B00064234FF4967219460090002003F002FD64
:1009C00032480088C823962200210090104603F088
:1009D000F9FC4FF6E0702D4908800020C8234FF441
:1009E000C772014600904FF4977003F041FD4FF637
:1009F0001F00EC234FF4C772CA210090002003F0BF
:100A000037FD002000902148038821A2D221022036
:100A100003F095FE002000901C4803881FA2D221FD
:100A2000962003F08CFE00200090184803881EA238
:100A30000A2140F22F1003F082FE0020009013489C
:100A400003881BA2322140F22F1003F078FE002011
:100A500000900E48038818A25A2140F22F1003F08C
:100A60006EFE002000900948038815A26F2140F215
:100A70002F1003F064FE002000900448038812A2A7
:100A8000832140F22F1023E000080140560000208F
:100A90007670703D303030306D560000566D6178A4
:100AA0003D303030306D560075732F6469763A00F2
:100AB0006D762F6469763A006D6F765F76657200A9
:100AC0006D6F765F686F72006C6F6164000000008C
:100AD00003F035FE08BD1CB50021084600F0D4FF28
:100AE0000120009000208DF8040008208DF80500FA
:100AF00001208DF80600684601F0E2FB0321042086
:100B000000F0C2FF0820009000208DF804000C20A7
:100B10008DF8050001208DF80600684601F0D0FB35
:100B20000421084600F0B0FF1020009000208DF84E
:100B300004000C208DF8050001208DF806006846A1
:100B400001F0BEFB1CBD38B50A2000F0CCFCFE480D
:100B500004884FF47840FC4908800121FB4800F0EC
:100B600010FF30B3FA480078401CF94908700020A3
:100B7000F8490860F6480078022802D10020F449BC
:100B80000870F348007850B900200090EE480388C0
:100B9000F1A2E0214FF4827003F0D1FD09E00020C2
:100BA0000090E9480388EDA2E0214FF4827003F041
:100BB000C6FD012001F0FBFBE348048038BD10B501
:100BC0000A2000F090FC0020E249091D086008217D
:100BD000E34800F0D6FEC8B9DD48007858B9E148CE
:100BE0000078401CDF4908700846007816280DD1AF
:100BF000012008700AE0DC480078401CDA490870DF
:100C0000084600780C2801D101200870082001F066
:100C1000CEFB10BD10B50A2000F065FC0020CD49C8
:100C2000083108601021CE4800F0ABFEB8B9C848C2
:100C3000007850B9CB480078401ECA490870084671
:100C4000007860B91520087009E0C7480078401E98
:100C5000C54908700846007808B90B2008701020B4
:100C600001F0A5FB10BD2DE9F04F87B001218807E9
:100C700002F09FFA002875D00021BC4801F0D0FF97
:100C800000214FF0804001F0CBFF0121880702F0E6
:100C9000A1FAB64802F07BFA8246B54800684FF4E4
:100CA000803101FB00A0B34908600846006804F0E9
:100CB000E4F90646B04AB14B04F0F2F904460D4699
:100CC000AC48006804F0D9F9804622462B4604F06F
:100CD000E5FACDE9000104F0A3F9A6490860A148AE
:100CE0000078162871D2DFE800F0860B141D252D40
:100CF000353E464A4E52575C61666B71767A7E820B
:100D000040F25B109E4908604FF07E509D4908609C
:100D100072E040F2B6209A4908604FF0804099494D
:100D2000086069E04FF4D960954908609648954994
:100D3000086061E04FF45960914908609348914917
:100D4000086059E04FF4D9508D49086090488D49AA
:100D5000086051E044F2D130894908608D488949E2
:100D6000086049E06BE248F2A270854908608A4851
:100D70008449086040E03220814908603CE06420FA
:100D80007F49086038E0C8207D49086034E04FF4AE
:100D9000FA707B4908602FE04FF47A707849086058
:100DA0002AE04FF4FA607649086025E041F2883085
:100DB0007349086020E042F21070714908601BE03E
:100DC00044F620606E49086016E014E04CF25030A2
:100DD0006B49086010E07148694908600CE0704890
:100DE0006749086008E06F486549086004E06E489C
:100DF0006349086000E000BF00BF5B4800780C2832
:100E000052D2DFE800F051060D141B222930373E84
:100E1000454B4FF47A7065490880FFF74BFC44E07E
:100E200040F2B63061490880FFF75AFC3DE04FF4CC
:100E300061705E490880FFF769FC36E04FF4487046
:100E40005A490880FFF778FC2FE04FF42F7057497C
:100E50000880FFF787FC28E04FF41670534908809C
:100E6000FFF796FC21E04FF4FA7050490880FFF735
:100E7000A5FC1AE04FF4C8704C490880FFF7B4FC99
:100E800013E04FF4967049490880FFF7C3FC0CE06B
:100E9000C82046490880FFF7D3FC06E06420434998
:100EA0000880FFF7E3FC00E000BF00BF34480068A3
:100EB0003D4990FBF1F03030C0B28DF81000304861
:100EC000006890FBF1F201FB1200344990FBF1F055
:100ED0003030C0B28DF8110029480068324990FBCB
:100EE000F1F201FB12002D4990FBF1F201FB12001F
:100EF00042F2107190FBF1F03030C0B28DF8120068
:100F00001F480068284990FBF1F201FB12002349B9
:100F100090FBF1F201FB120042F2107190FBF1F232
:100F200001FB12004FF47A7190FBF1F03030C0B247
:100F30008DF81300124800681B4990FBF1F201FB89
:100F40001200164934E0000056000020000801405D
:100F5000150000208001224266000000760000009B
:100F6000001801401400002016000020000400407A
:100F7000580000205C000020D91C8C7D6E0D213FA4
:100F800010000020180000200000A04000002041B8
:100F90000000A041000048420000C842A0860100B5
:100FA000400D030020A1070040420F001C0000205C
:100FB00090FBF1F201FB120042F2107190FBF1F292
:100FC00001FB12004FF47A7190FBF1F201FB120069
:100FD000642190FBF1F03030C0B28DF81400A148CC
:100FE0000068A14990FBF1F201FB12009F4990FBC0
:100FF000F1F201FB120042F2107190FBF1F201FBE1
:1010000012004FF47A7190FBF1F201FB120064219F
:1010100090FBF1F201FB12000A2190FBF1F030305D
:10102000C0B28DF815008F4800688F4990FBF1F22F
:1010300001FB12008D4990FBF1F201FB120042F21C
:10104000107190FBF1F201FB12004FF47A7190FBEA
:10105000F1F201FB1200642190FBF1F201FB12009E
:101060000A2190FBF1F201FB12003030C0B28DF882
:10107000160000208DF817007D4800887A4990FB03
:10108000F1F03030C0B28DF808007948008890FB4C
:10109000F1F201FB1200754990FBF1F03030C0B263
:1010A0008DF80900724800886F4990FBF1F201FB4E
:1010B00012006E4990FBF1F201FB120042F2107136
:1010C00090FBF1F03030C0B28DF80A00684800881B
:1010D000654990FBF1F201FB1200644990FBF1F2CB
:1010E00001FB120042F2107190FBF1F201FB1200C1
:1010F0004FF47A7190FBF1F03030C0B28DF80B00F4
:101100005B480088584990FBF1F201FB12005749F7
:1011100090FBF1F201FB120042F2107190FBF1F230
:1011200001FB12004FF47A7190FBF1F201FB120007
:10113000642190FBF1F03030C0B28DF80C004C48C7
:101140000088494990FBF1F201FB1200474990FBEE
:10115000F1F201FB120042F2107190FBF1F201FB7F
:1011600012004FF47A7190FBF1F201FB120064213E
:1011700090FBF1F201FB12000A2190FBF1F03030FC
:10118000C0B28DF80D003A480088374990FBF1F263
:1011900001FB1200354990FBF1F201FB120042F213
:1011A000107190FBF1F201FB12004FF47A7190FB89
:1011B000F1F201FB1200642190FBF1F201FB12003D
:1011C0000A2190FBF1F201FB12003030C0B28DF821
:1011D0000E0000208DF80F002648B0F800B04FF444
:1011E0007840244908802448006844F620618842F9
:1011F00003D901202149087002E000201F4908702E
:101200001C48A0F800B000201D49086000214FF0E4
:10121000804001F099FF00211A4801F095FF01215B
:10122000880701F0FDFC0121164801F0F9FC164881
:10123000006808B9012000E000201349086007B0E9
:10124000BDE8F08F10B501210E4801F0B2FF40B1AA
:1012500001210C4801F0BEFF09480068401C084904
:10126000086010BD1000002040420F00A086010061
:101270001C000020560000205C0000200C00002014
:101280005800002000040040800122420CB50020DC
:10129000019000906C48006840F480306A49086012
:1012A00000BF6948006800F4003000900198401CBD
:1012B0000190009818B90198B0F5A06FF1D162487B
:1012C000006800F4003010B10120009001E000201F
:1012D00000900098012843D15C48006840F010005D
:1012E0005A4908600846006820F003000860084674
:1012F000006840F002000860534840685249486066
:101300000846406848600846406840F4806048608D
:101310000846406820F47C1048600846406840F465
:10132000E81048600846006840F08070086000BF20
:101330004548006800F000700028F9D04248406835
:1013400020F00300404948600846406840F0020031
:10135000486000BF3C48406800F00C000828F9D104
:101360000CBD10B5FFF792FF10BD10B536480068F0
:1013700040F001003449086008464068344908409C
:101380003149486008460068324908402E490860E3
:101390000846006820F4802008600846406820F471
:1013A000FE0048604FF41F008860FFF7DAFF4FF03F
:1013B00000602949086010BD10B5002100200022FE
:1013C000214B5B6803F00C0121B1042906D00829E8
:1013D00028D107E0214B224C236027E01F4B204CF3
:1013E000236023E0184B5B6803F47010164B5B68B6
:1013F00003F48032022303EB904022B9194B43439C
:10140000174C23600DE0104B5B6803F4003323B1ED
:10141000144B4343124C236003E0104B4343104CE6
:10142000236003E00D4B0E4C236000BF00BF064B52
:101430005B68C3F303130C4CE15C094B1B68CB40A6
:10144000074C236010BD0000001002400020024045
:101450000000FFF8FFFFF6FE08ED00E000127A0042
:101460002000002000093D002400002010B56FF08E
:10147000040000F074F92E4800682E49B0FBF1F02A
:101480002D4908700846007800EB4001C1EBC01000
:101490004FF6FF7101EAC0002849088010BD0146DF
:1014A000254A12784A434FF0E0235A6100229A619C
:1014B0001A46126942F001021A6100BF4FF0E022A1
:1014C000106900F001021AB100F48032002AF5D050
:1014D0004FF0E022126922F001024FF0E0231A617E
:1014E00000229A6170470146144A12884A434FF01D
:1014F000E0235A6100229A611A46126942F0010201
:101500001A6100BF4FF0E022106900F001021AB129
:1015100000F48032002AF5D04FF0E022126922F068
:1015200001024FF0E0231A6100229A617047000027
:101530002000002000127A00340000203600002035
:10154000014600BF704700BF494A128802F04002BE
:10155000002AF9D0C2B2464B1B1D1A80704710B545
:1015600086B00446012144F2040000F033FC4FF43D
:101570000070ADF8140003208DF8160018208DF8C7
:10158000170005A93B4800F069F94FF48060ADF8F9
:10159000140004208DF8170005A9364800F05EF904
:1015A00025208DF8000003208DF801008DF8020041
:1015B00001208DF80300684600F087F801940020B0
:1015C000ADF80800ADF80A00ADF80C00ADF8100059
:1015D0000C20ADF80E0001A9254800F0A2FC012264
:1015E00040F22551224800F034FD0121204800F04E
:1015F00024FD06B010BD10B540F225511C4800F086
:101600000DFE10B31A4800F089FDC4B21A480088D4
:1016100000F40040C8B91848008800F4804060B168
:101620000A2C03D000201449088020E012480088CA
:1016300040F400401049088019E00D2C06D10E48F6
:10164000008840F480400C49088010E00A48008877
:10165000C0F30D0009490C5407480088401C064996
:10166000088008460088C72801DD0020088010BDDA
:1016700000380140000801403C00002064000020C8
:101680000948804709480047FEE7FEE7FEE7FEE716
:10169000FEE7FEE7FEE7FEE7FEE7FEE70448054952
:1016A000054A064B704700006B1300083101000823
:1016B00090060020900C0020900800209008002048
:1016C00031490143314A1160704770B50021002350
:1016D0000F22C47804B32D4C246804F4E064C4F5EC
:1016E000E064210AC1F10403CA40447804FA03F11A
:1016F0008478144021430901254C0678A1550478CB
:1017000004F01F050124AC4005786D11AD0005F112
:10171000E025C5F8004109E0047804F01F05012424
:10172000AC401C4D0678761145F8264070BD1A4A2B
:101730000A400243154B1B1F1A60704739B1134A08
:10174000121D12680243114B1B1D1A6006E00F4A5E
:10175000121D126882430D4B1B1D1A60704704282E
:1017600008D14FF0E021096941F004014FF0E02277
:10177000116107E04FF0E021096921F004014FF009
:10178000E0221161704700000000FA050CED00E056
:1017900000E400E080E100E080FFFF1F10B5044698
:1017A000CC48844208D10121042000F02DFB002107
:1017B000042000F029FB46E0C748844208D10121FB
:1017C000082000F021FB0021082000F01DFB3AE07A
:1017D000C248844208D10121102000F015FB0021ED
:1017E000102000F011FB2EE0BD48844208D10121F9
:1017F000202000F009FB0021202000F005FB22E062
:10180000B848844208D10121402000F0FDFA0021AF
:10181000402000F0F9FA16E0B348844208D10121D3
:10182000802000F0F1FA0021802000F0EDFA0AE0BB
:10183000AE48844207D10121801500F0E5FA00216D
:10184000A01500F0E1FA10BD10B50121084600F026
:10185000DBFA0021012000F0D7FA10BD2DE9F0419C
:10186000024600250026002000230024002791F8CE
:1018700003C00CF00F0591F803C00CF0100CBCF184
:10188000000F03D091F802C04CEA050591F800C0A2
:10189000BCF1000F31D0146800202BE04FF0010C98
:1018A0000CFA00F3B1F800C00CEA03069E4220D106
:1018B00083004FF00F0C0CFA03F7BC4305FA03FC4E
:1018C0004CEA040491F803C0BCF1280F06D14FF094
:1018D000010C0CFA00FCC2F814C00AE091F803C035
:1018E000BCF1480F05D14FF0010C0CFA00FCC2F816
:1018F00010C0401C0828D1D31460B1F800C0BCF15E
:10190000FF0F34DD546800202EE000F1080C4FF08A
:10191000010808FA0CF3B1F800C00CEA03069E4275
:1019200021D183004FF00F0C0CFA03F7BC4305FAEA
:1019300003FC4CEA040491F803C0BCF1280F05D164
:1019400000F1080C08FA0CF8C2F8148091F803C0F2
:10195000BCF1480F07D100F1080C4FF0010808FA5C
:101960000CF8C2F81080401C0828CED35460BDE8A3
:10197000F0814FF6FF710180022181700421C17056
:1019800070470246002093680B400BB1012000E035
:10199000002070470146886880B2704702460020E8
:1019A000D3680B400BB1012000E0002070470146D6
:1019B000C86880B2704701617047416170470AB1E1
:1019C000016100E041617047C16070474FF48032AF
:1019D0000A4382618161826182698269704702463D
:1019E0000020434B18684FF68073184040EA0210FD
:1019F00008433F4B186070473E49C8617047F0B5D7
:101A00000A46002300240021002500F00046B6F11C
:101A1000004F02D1364EF16901E0354E7168C0F3D6
:101A2000034583B200F44016B6F5401F08D121F0FB
:101A300070612F4E766826F070662D4F7E6012E042
:101A400000F48016B6F5801F06D1032606FA05F4C9
:101A5000A14341F0706106E0460D360103FA06F637
:101A6000B14341F0706122B1460D360103FA06F62A
:101A7000314300F00046B6F1004F02D11C4EF16137
:101A800001E01B4E7160F0BD30B500228B071C0FCA
:101A90000F2303FA04F2164B08338C1053F824304A
:101AA0009343134C08348D1044F8253023468C1092
:101AB00053F824308C07240F00FA04F423430C4C11
:101AC00008348D1044F8253030BD0A49DC310860F7
:101AD0007047000000080140000C01400010014068
:101AE0000014014000180140001C0140002001408A
:101AF0000000014000002042DF48006840F0010083
:101B0000DD49086008464068DC490840DA49486019
:101B100008460068DA490840D74908600846006866
:101B200020F4802008600846406820F4FE004860E9
:101B30004FF41F0088607047CF49096821F4803155
:101B4000CD4A11601146096821F480211160B0F579
:101B5000803F03D0B0F5802F0ED106E0C64909685A
:101B600041F48031C44A116007E0C349096841F477
:101B7000A021C14A116000E000BF00BF704710B54E
:101B800001460022002300204A11012A02D1BA4C4A
:101B9000236806E0022A02D1B74C236A01E0B64C62
:101BA000636A01F01F02012494401C400CB1012023
:101BB00000E0002010BD38B5002000900024002572
:101BC00000BF3120FFF7DBFF05460098401C009066
:101BD0000098B0F5A06F01D0002DF2D03120FFF7B2
:101BE000CEFF08B1012400E00024204638BD0146A4
:101BF0000020A14A106820F0F80040EAC1001060FF
:101C00007047A04908607047024600209A4B586808
:101C100020F47C1042EA01031843974B5860704748
:101C200098490866704701460020934A506820F0A2
:101C300003000843506070478F48406800F00C0074
:101C40007047014600208C4A506820F0F00008439D
:101C50005060704701460020874A506820F4E060D9
:101C600008435060704701460020834A506820F4C2
:101C7000605040EAC1005060704729B17E4A527AF4
:101C800002437D4B5A7204E07B4A527A82437A4B7C
:101C90005A7270477B49D83108607047014600206E
:101CA000754A506820F44040084350607047002156
:101CB000714A20321170704A82F82010012802D037
:101CC00004280AD104E001216B4A2032117005E09A
:101CD0000521694A2032117000E000BF00BF704743
:101CE0006949086070476449096A0143624A1162A0
:101CF0007047654944390860704730B500210022BB
:101D0000002400235C4D6D6805F00C0121B104290D
:101D100005D0082923D105E05C4D056022E05B4D2C
:101D200005601FE0544D6D6805F47012524D6D68EA
:101D300005F48034022505EB92421CB9544D5543FD
:101D400005600BE04C4D6D6805F400351DB1504D3C
:101D50005543056002E04D4D5543056002E04B4D93
:101D6000056000BF00BF444D6D6805F0F001090932
:101D7000484D6B5C0568DD4045603F4D6D6805F47E
:101D8000E061090A434D6B5C4568DD4085603A4D72
:101D90006D6805F46051C90A3E4D6B5C4568DD40D5
:101DA000C560354D6D6805F44041890B3A4D6B5C5B
:101DB000C568B5FBF3F5056130BD29B12E4A5269FE
:101DC00002432D4B5A6104E02B4A526982432A4B4D
:101DD0005A61704729B1284A92690243264B9A6199
:101DE00004E0254A92698243234B9A61704729B1E6
:101DF000214AD2690243204BDA6104E01E4AD269CB
:101E000082431D4BDA61704729B11B4AD2680243F5
:101E1000194BDA6004E0184AD2688243164BDA6044
:101E2000704729B1144A12690243134B1A6104E046
:101E3000114A12698243104B1A61704712494039A6
:101E4000086070470F49C86470470B49C8717047F4
:101E50000948406A40F0807007494862704701466F
:101E60000020054A92680A400AB1012000E00020E3
:101E70007047014988727047001002400000FFF867
:101E8000FFFFF6FE000042428004424200127A0048
:101E900000093D003E0000204E00002010B5044621
:101EA000FB48844209D101218803FFF7ADFF0021DF
:101EB0004FF48040FFF7A8FF32E0F648844209D192
:101EC00001214804FFF7ADFF00214FF40030FFF778
:101ED000A8FF25E0F048844209D101218804FFF7DA
:101EE000A0FF00214FF48020FFF79BFF18E0EB4894
:101EF000844209D10121C804FFF793FF00214FF468
:101F00000020FFF78EFF0BE0E548844208D1012155
:101F10000805FFF786FF00214FF48010FFF781FFCF
:101F200010BD2DE9F04786B005460E460024A246B6
:101F300000BFA1460027B08900B100BF2F462C8A00
:101F40004CF6FF700440F08804432C82AC894EF6B6
:101F5000F3100440B0883189084371890843044371
:101F6000AC81AC8A4FF6FF400440B0890443AC8298
:101F700001A8FFF7C2FEC648874202D1DDF810A0D3
:101F800001E0DDF80CA0A88900F4004040B10AEBA4
:101F9000CA0000EB0A1031684900B0FBF1F807E015
:101FA0000AEBCA0000EB0A1031688900B0FBF1F8B7
:101FB0006420B8FBF0F004012009642101FB1089C2
:101FC000A88900F4004040B1322000EBC900B0FB0A
:101FD000F1F000F00700044308E0322000EB0910A4
:101FE0006421B0FBF1F000F00F0004432C8106B037
:101FF000BDE8F0874FF41651016000218180C18057
:1020000001810C21418100218181704710B5024678
:102010000020108A4FF2FF0318400B884C8823439E
:102020008C882343CC8823431843108210BD0021A1
:10203000018041808180C180704721B1828942F452
:102040000052828104E082894DF6FF731A4082813A
:102050007047F0B50346002400260025002040F616
:102060006A17B94200D100BF1846C1F3421401F00B
:102070001F06012707FA06F5012C01D10C3004E0F8
:10208000022C01D1103000E014301AB107682F4340
:10209000076002E00768AF430760F0BD1AB1838AAA
:1020A0000B43838202E0838A8B4383827047028AD8
:1020B0004FF6F0731A400282028A0A430282704786
:1020C00082894FF2FF731A40828182890A4382819A
:1020D000704721B1828942F00202828104E0828944
:1020E0004FF6FD731A4082817047028A4FF6DF7304
:1020F0001A400282028A0A430282704721B1028A90
:1021000042F48042028204E0028A4BF6FF731A40D6
:1021100002827047C1F308028280704701468888B6
:10212000C0F308007047818941F001018181704747
:10213000028BD2B20283028B42EA012202837047F1
:10214000028B02F47F420283028B0A4302837047B0
:1021500021B1828A42F02002828204E0828A4FF614
:10216000DF731A408282704721B1828A42F01002E6
:10217000828204E0828A4FF6EF731A4082827047AF
:1021800021B1828A42F00802828204E0828A4FF6FC
:10219000F7731A408282704721B1828942F400426B
:1021A000828103E08289C2F30E028281704721B1ED
:1021B000828A42F40062828204E0828A4FF2FF73D4
:1021C0001A4082827047828A4FF6FB731A408282DD
:1021D000828A0A438282704721B1828A42F00202D7
:1021E000828204E0828A4FF6FD731A408282704731
:1021F00002460020B1F5007F00D100BF13880B40DC
:102200000BB1012000E00020704701F40072B2F52C
:10221000007F00D100BFCA430280704770B50246FC
:10222000002400230025002040F66A16B14200D1A8
:1022300000BFC1F3421501F01F03012606FA03F3A4
:10224000012D02D19689334006E0022D02D1168A73
:10225000334001E0968A33400C12012606FA04F45A
:102260001688344013B10CB1012000E0002070BD8D
:1022700010B50022002340F66A14A14200D100BF2D
:102280000A1201249440A3B2DC43048010BD000074
:10229000003801400044004000480040004C00402D
:1022A00000500040002044490860091D0860091DD5
:1022B0000860091D086041483F49143108607047B3
:1022C00000213D498279002A3AD00A461268036803
:1022D0009A430B461A600A1D126803689A430B1D45
:1022E0001A60027911440A6803681A430A60324A84
:1022F0000832126803689A432F4B08331A601A1D7C
:10230000126803689A432C4B0C331A604279102AE6
:102310000ED11A1F126803681A43274B08331A603C
:102320001A1D126803681A43234B0C331A600DE020
:102330002149427911440A6803681A430A6005E09A
:10234000027911440A6803689A430A6070470021C1
:10235000016001710C2141710021817170471649A2
:10236000103109680143144A103211607047014668
:102370000020114A143212680A400AB1012000E01C
:10238000002070470C491431086070470146002056
:102390000022094B1B6803EA0102074B14331B6838
:1023A0000B4013B10AB1012000E000207047024940
:1023B000143108607047000000040140FFFF0F0067
:1023C00010B50446FE48844208D10121C014FFF72D
:1023D0001BFD0021E014FFF717FDC4E0B4F1804FAE
:1023E00008D101210846FFF71CFD00210120FFF75D
:1023F00018FDB8E0F348844208D101210220FFF71C
:1024000010FD00210220FFF70CFDACE0EE488442F5
:1024100008D101210420FFF704FD00210420FFF76B
:1024200000FDA0E0E948844208D101210820FFF71F
:10243000F8FC00210820FFF7F4FC94E0E448844213
:1024400008D101211020FFF7ECFC00211020FFF73C
:10245000E8FC88E0DF48844208D101212020FFF712
:10246000E0FC00212020FFF7DCFC7CE0DA4884421D
:1024700008D101214014FFF7C7FC00216014FFF7C9
:10248000C3FC70E0D548844209D10121C804FFF79C
:10249000BBFC00214FF40020FFF7B6FC63E0D048FE
:1024A000844209D101210805FFF7AEFC00214FF459
:1024B0008010FFF7A9FC56E0CA48844209D10121E7
:1024C0004805FFF7A1FC00214FF40010FFF79CFC2A
:1024D00049E0C548844208D101214020FFF7A1FC12
:1024E00000214020FFF79DFC3DE0C048844208D118
:1024F00001218020FFF795FC00218020FFF791FC4F
:1025000031E0BB48844208D101218015FFF789FCE6
:102510000021A015FFF785FC25E0B648844209D1CB
:1025200001210804FFF770FC00214FF48030FFF711
:102530006BFC18E0B048844209D101214804FFF740
:1025400063FC00214FF40030FFF75EFC0BE0AB486A
:10255000844208D101218804FFF756FC00214FF482
:102560008020FFF751FC10BD00220288944B984256
:102570000ED0994B98420BD0B0F1804F08D0914BC0
:10258000984205D0904B984202D0904B984204D18B
:102590004FF68F731A404B881A438D4B984207D0E1
:1025A0008C4B984204D04FF6FF431A40CB881A4315
:1025B00002808B8883850B880385814B98420BD0E2
:1025C000854B984208D08B4B984205D08A4B984255
:1025D00002D08A4B984201D10B7A03860123838271
:1025E000704770B5002400220023058C4FF6FE765C
:1025F00035400584028C8388048B4FF68F752C4000
:10260000B51E2C400D882C43751E2A400D892A4387
:102610004D882A436A4DA8420BD06F4DA84208D07E
:10262000744DA84205D0744DA84202D0734DA84203
:1026300013D14FF6F7752A404D892A434FF6FB75A3
:102640002A408D882A434FF6FF652B404FF6FF55F1
:102650002B408D892B43CD892B4383800483CD88E8
:102660008586028470BD70B5002400220023058C8D
:102670004FF6EF7635400584028C8388048B48F64C
:10268000FF752C404FF6FF452C400D884FF6FF7626
:1026900006EA05252C434FF6DF752A400D8906EA28
:1026A00005152A434D8806EA05152A43444DA842DC
:1026B00002D0494DA8421DD14FF67F752A404D8961
:1026C0004FF6FF7606EA05152A434FF6BF752A40F6
:1026D0008D8806EA05152A434FF6FF352B404FF249
:1026E000FF752B408D8906EA85052B43CD8906EAC7
:1026F00085052B4383800483CD880587028470BDC4
:1027000070B5002400220023058C4FF6FF6635408B
:102710000584028C8388848B4FF68F752C404FF68E
:10272000FC752C400D882C434FF6FF552A400D892F
:102730004FF6FF7606EA05252A434D8806EA052569
:102740002A431F4DA84202D0234DA8421DD14FF26B
:10275000FF752A404D894FF6FF7606EA05252A4384
:102760004FF6FF352A408D8806EA05252A434EF6A6
:10277000FF752B404DF6FF752B408D8906EA051538
:102780002B43CD8906EA05152B4383808483CD88AE
:102790008587028470BD70B5002200230024058C5B
:1027A0004EF6FF7635400584038C8488828B48F68C
:1027B000FF752A404FF6FF452A400D8820E00000B3
:1027C000002C01400004004000080040000C0040C4
:1027D000001000400014004000340140004C014053
:1027E000005001400054014000180040001C00400F
:1027F00000200040004001400044014000480140EA
:102800004FF6FF7606EA05252A434DF6FF752B4065
:102810000D8906EA05352B434D8806EA05352B431D
:10282000FA4DA84202D0FA4DA84208D14BF6FF75E6
:102830002C408D894FF6FF7606EA85152C4384805F
:102840008283CD88A0F84050038470BD828B4FF204
:10285000FF331A408283828B4FF6FF7303EA012312
:102860001A4382837047F0B50C46154600220021BA
:102870000026078C4EF6FF7C07EA0C070784828B44
:10288000018C4FF6FF7707EA043640F6FF473A40DF
:102890004FF6FF7707EA05273A434FF6FF7707EA37
:1028A00003373A43D94FB8420ED0D94FB8420BD074
:1028B000B0F1804F08D0D74FB84205D0D64FB842BC
:1028C00002D0D64FB84206D14DF6FF77394046F4D4
:1028D0008057394305E047F6FF57394044F48057A5
:1028E000394382830184F0BD828B4FF6F3731A4023
:1028F0008283828B0A4382837047F0B50C4615466B
:10290000002200210026078C4FF6FF6C07EA0C0717
:102910000784828B018C4FF6FF7707EA04264FF677
:102920000C773A404FF6FF7707EA03172F433A43F5
:10293000B64FB8420ED0B64FB8420BD0B0F1804F70
:1029400008D0B44FB84205D0B34FB84202D0B34F0D
:10295000B84206D14FF6FF57394046F480773943E5
:1029600005E04FF2FF57394044F4807739438283C2
:102970000184F0BD028B4FF2FF331A400283028BB9
:102980004FF6FF7303EA01231A4302837047F0B541
:102990000C461546002200210026078C4FF6EF7CDE
:1029A00007EA0C070784028B018C4FF6FF7707EAD2
:1029B000041640F6FF473A404FF6FF7707EA033721
:1029C0003A434FF6FF7707EA05273A438F4FB8425D
:1029D0000ED08F4FB8420BD0B0F1804F08D08D4F42
:1029E000B84205D08C4FB84202D08C4FB84206D1C5
:1029F0004FF6DF77394046F01007394305E04FF6D0
:102A00005F77394044F01007394302830184F0BDF9
:102A1000028B4FF6F3731A400283028B0A43028340
:102A20007047F0B50C46154600220021068C4FF683
:102A3000FE773E400684028B018C4FF60C763240C6
:102A40007E1C06EA03162E433243704EB0420ED06F
:102A50006F4EB0420BD0B0F1804F08D06D4EB042F7
:102A600005D06D4EB04202D06C4EB04206D14FF64A
:102A7000FD76314044F00106314305E04FF6F5762E
:102A8000314044F00106314302830184F0BD70B54A
:102A900005460C465D4885420ED05D4885420BD008
:102AA000B5F1804F08D05B48854205D05A48854231
:102AB00002D05A48854200D100E000BF208850B9BA
:102AC0002389A28861882846FFF7ABFFE188284662
:102AD000FFF79EFF25E0208804280AD12389A288D9
:102AE00061882846FFF753FFE1882846FFF742FF39
:102AF00017E0208808280AD12389A28861882846FF
:102B0000FFF7FBFEE1882846FFF7EEFE09E0238988
:102B1000A28861882846FFF7A6FEE1882846FFF7CD
:102B200095FE70BD2DE9F04105460C4600260127B3
:102B3000608808B9022600E00026A088012801D19B
:102B4000022700E001272088A0B92389A288618894
:102B50002846FFF766FFE1882846FFF759FF2389DB
:102B60003A4631462846FFF712FFE1882846FFF72C
:102B700001FF13E02389A28861882846FFF707FF39
:102B8000E1882846FFF7F6FE23893A463146284673
:102B9000FFF747FFE1882846FFF73AFFBDE8F081DD
:102BA0000A884B881A438B881A43CB881A430B89AF
:102BB0001A434B891A438B891A43A0F84420704763
:102BC0004FF6FF71818000210180C1804180017238
:102BD00070470021018041808180C1800181418155
:102BE0008181C18170470021018041800121818064
:102BF0000021C180018170470021018041808180D6
:102C0000C18001814181818170470000002C014019
:102C1000003401400004004000080040000C004067
:102C200021B1028842F00102028004E002884FF6DE
:102C3000FE731A400280704731B1B0F8442042F46C
:102C40000042A0F8442005E0B0F84420C2F30E0290
:102C5000A0F8442070471AB183890B43838102E0B6
:102C600083898B43838170478182704741EA0203E5
:102C7000A0F8483070471AB183890B43838102E082
:102C800083898B438381704701894FF6F872114025
:102C9000018170470A46002101894FF68F73194060
:102CA00011430181704730B504460D462946204640
:102CB000FFF7F0FF208940F00700208130BD2DE9AB
:102CC000F04104460D4616461F46602D06D13B4690
:102CD000012231462046FFF75AFE05E03B4601221D
:102CE00031462046FFF79DFE29462046FFF7D2FFDA
:102CF000208940F007002081BDE8F08130B50C4606
:102D000000210189C9B24FF6FF7505EA0325154375
:102D100025432943018130BD2DE9F04105460E468A
:102D200017469846002443463A4631462846FFF760
:102D3000E5FF2C894FF6F870044044F007044FF685
:102D40008F70044044F070042C81BDE8F081F0B530
:102D500004460D4616461F463B4632462946204647
:102D6000FFF7CCFF208940F480402081F0BD018531
:102D7000828270470A46002101884FF68F731940FE
:102D8000114301807047F0B50C4615461E460021E0
:102D9000002200230189028B038C4FF6F87739401B
:102DA00021434FF6FC473A4040F201173A434FF6B1
:102DB000DD773B404FF6FF7707EA06172F433B438B
:102DC000018102830384F0BD0A460021018B4FF686
:102DD0008F7319401143018370470A460021018B0C
:102DE00048F6FF7319404FF6FF7303EA02231943B5
:102DF000018370470A460021818B4FF68F7319407B
:102E00001143818370470A460021818B48F6FF7386
:102E100019404FF6FF7303EA022319438183704779
:102E200021B1028842F08002028004E002884FF65D
:102E30007F731A400280704721B1828842F00402F9
:102E4000828004E082884FF6FB731A4082807047CC
:102E500021B1828842F00802828004E082884FF625
:102E6000F7731A408280704721B1828842F00102D4
:102E7000828004E082884FF6FE731A408280704799
:102E80000A460021018B4FF6F77319401143018365
:102E900070470A460021018B4FF2FF7319404FF62D
:102EA000FF7303EA02231943018370470A46002196
:102EB000818B4FF6F77319401143818370470A469F
:102EC0000021818B4FF2FF7319404FF6FF7303EA25
:102ED00002231943818370470A460021018B4FF674
:102EE000FB7319401143018370470A460021018B8F
:102EF0004FF6FF3319404FF6FF7303EA02231943DD
:102F0000018370470A460021818B4FF6FB731940FD
:102F10001143818370470A460021818B4FF6FF33AE
:102F200019404FF6FF7303EA022319438183704768
:102F30000A460021018B4FF67F731940114301832C
:102F400070470A460021018BC1F30E014FF6FF7353
:102F500003EA02231943018370470A460021818B4B
:102F60004FF67F7319401143818370470A46002151
:102F7000818BC1F30E014FF6FF7303EA022319435D
:102F8000818370470A460021018C4FF6FD7319407A
:102F90001143018470470A460021018C4FF6F773F4
:102FA00019401143018470470A460021018C4FF6F5
:102FB000DF7319404FF6FF7303EA021319430184CC
:102FC00070470A460021018C4FF67F7319404FF677
:102FD000FF7303EA02131943018470470A46002174
:102FE000018C4FF6FF5319404FF6FF7303EA02239B
:102FF0001943018470470A460021018C4FF2FF7388
:1030000019404FF6FF7303EA022319430184704706
:103010000A460021018C4DF6FF7319404FF6FF73ED
:1030200003EA023319430184704730B500230124B9
:103030008C40A3B2048C9C430484048C02FA01F5F6
:10304000ADB22C43048430BD30B5002304248C4041
:10305000A3B2048C9C430484048C02FA01F5ADB243
:103060002C43048430BD70B503460020002418466C
:10307000183001258D40ACB21D8CA5431D8409B1CB
:10308000082909D100EB6100056825F0700505608D
:103090000568154305600EE00D1FC5F34E05284475
:1030A000056825F4E045056005684FF6FF7606EAF9
:1030B00002263543056070BD21B1028842F002024C
:1030C000028004E002884FF6FD731A4002807047C8
:1030D00021B1028842F00402028004E002884FF627
:1030E000FB731A400280704721B1828842F080024F
:1030F000828004E082884FF67F731A408280704796
:1031000002884FF6F7731A40028002880A43028051
:10311000704782884FF68F731A40828082880A43F4
:103120008280704702894FF6F8731A400281028943
:103130000A430281704702894FF67F731A40028169
:1031400002890A43028170478184704781857047F4
:10315000818670470187704781877047A0F84010CB
:10316000704702884FF6FF431A40028002880A43E4
:10317000028070470146888E70470146088F70476D
:103180000146888F70470146B1F8400070470146FC
:10319000888C70470146088D704702460020138ACC
:1031A0000B400BB1012000E000207047CA430282AF
:1031B000704730B50246002000230024158A05EA36
:1031C0000103958905EA010413B10CB1012000E067
:1031D000002030BDCA4302827047000030B943F27C
:1031E000DB028100A1F1C0410A6005E043F2D20296
:1031F0008100A1F1C0410A606FF07042411C89005A
:10320000A1F1C0410A608100A1F1C041C1F80421CF
:10321000704710280AD118214FF020421166402132
:1032200051664FF0FC319166D16610E01821F74AE3
:10323000116040214FF02042C2F884104FF0FC3161
:10324000F24A083211604FF02042C2F88C107047E9
:103250001820EE492031086000200906C1F8A400BA
:103260004FF0FC30E94928310860091D0860091D4C
:1032700008607047D0E901121143C2681143026926
:1032800011434269114382691143C2691143026AC1
:103290001143426A1143826A1143C26A1143026BAD
:1032A000114302689200A2F1C042116081680829AE
:1032B0000BD101688900A1F1C041096841F04002C9
:1032C00001688900A1F1C0410A60416B0968426B45
:1032D000526841EA0211426B926841EA0221426B54
:1032E000928941EA0241426B128A41EA0251426BE1
:1032F000127D41EA0261426B926911430268521CDD
:103300009200A2F1C0421160C16AB1F5804F1BD199
:10331000816B0968826B526841EA0211826B926884
:1033200041EA0221826B128A41EA0251826B127DCC
:1033300041EA0261826B9269114302689200A2F134
:10334000C042C2F8041107E06FF0704201688900C2
:10335000A1F1C041C1F80421704730B5002100221D
:103360000023446844F0080485682C43C5682C4356
:1033700005692C43456944EA4524856944EA453199
:10338000C4692468C5696D6844EA0524C5692D8946
:1033900044EA0544C5692D7B44EA0562046A246851
:1033A000056A6D6844EA0524056A2D8944EA0544E6
:1033B000056A2D7B44EA05630468102C05D14FF0A3
:1033C00020442166A266E36608E0904C21604FF03D
:1033D0002044C4F888208D4C0C34236030BD016833
:1033E00041F01001426841EA4221826841EA4231DB
:1033F000864A20321160C1680968C268526841EA91
:103400000221C268128941EA0241C268127B41EA84
:1034100002617E4A283211600169096802695268B6
:1034200041EA02210269128941EA02410269127BE2
:1034300041EA0261754A2C321160416909684269AA
:10344000526841EA02214269128941EA0241426915
:10345000127B41EA02614FF02042C2F8B01070477F
:10346000002101600221416000218160C160016191
:1034700041618161C16101624FF480514162490043
:1034800081620021C16201630F21426B1160426BB6
:103490005160FF21426B91600F21426BD160426B02
:1034A0001161426B51610021426B91610F21826B6E
:1034B0001160826B5160FF21826B91600F21826BE2
:1034C000D160826B1161826B51610021826B9161CD
:1034D000704710210160002141608160C16001617D
:1034E00041618161FC21C2691160C2695160C26998
:1034F0009160C269D160026A1160026A5160026A19
:103500009160026AD1607047002101604160816072
:10351000FC21C2681160C2685160C2689160C268D3
:10352000D1600269116002695160026991600269AB
:10353000D16042691160426951604269916042699B
:10354000D160704751B18200A2F1C042126842F0CE
:1035500001038200A2F1C042136009E08200A2F1DF
:10356000C04212682A4B1A408300A3F1C0431A607C
:10357000704799B1102808D14FF02042126E42F0E6
:1035800004024FF020431A661DE0204A126842F000
:1035900004024FF02043C3F8802014E0102809D122
:1035A0004FF02042126E1A4BDB1E1A404FF02043A0
:1035B0001A6608E0154A1268154BDB1E1A404FF0D8
:1035C0002043C3F88020704748B110492031096872
:1035D00041F004014FF02042C2F8A01009E00B496D
:1035E000203109680A4AD21E11404FF02042C2F829
:1035F000A0107047B9B110280CD14FF02042126EC4
:1036000042F040024FF020431A661FE0800000A005
:10361000FEFF0F00724A126842F040024FF0204352
:10362000C3F8802012E0102808D14FF02042126E1B
:103630006C4B1A404FF020431A6607E0684A126844
:10364000684B1A404FF02043C3F880207047014672
:103650000020102903D14FF02042506F02E0604A51
:1036600014321068704710B5F2B1102807D14FF02E
:1036700020435B6E0B434FF02044636632E0B0F5AD
:10368000807F08D1564B1B1D1B680B434FF0204415
:10369000C4F8843026E0524B24331B680B434FF0B0
:1036A0002044C4F8A4301DE0102807D14FF0204377
:1036B0005B6E8B434FF02044636613E0B0F5807F70
:1036C00008D1474B1B1D1B688B434FF02044C4F8A7
:1036D000843007E0424B24331B688B434FF0204477
:1036E000C4F8A43010BD10B5024600200023102AF3
:1036F00003D14FF02044636E09E0B2F5807F03D11F
:10370000374C241D236802E0354C2434236803EA37
:1037100001040CB1012000E0002010BD102807D1E9
:103720004FF02042526E8A434FF020435A6613E016
:10373000B0F5807F08D12A4A121D12688A434FF0E3
:103740002043C3F8842007E0254A243212688A43C4
:103750004FF02043C3F8A420704770B50246002004
:10376000002300240025102A03D14FF02046736E59
:1037700009E0B2F5807F03D1194E361D336802E0AF
:10378000174E2436336803EA010403EAD10514B165
:103790000DB1012000E0002070BD102808D14FF0CD
:1037A0002042526E22EAD1024FF020435A6615E0C1
:1037B000B0F5807F09D10A4A121D126822EAD102AF
:1037C0004FF02043C3F8842008E0054A24321268F1
:1037D00022EAD1024FF02043C3F8A4207047000032
:1037E000800000A0BFFF0F0010B50446FA488442D5
:1037F00008D101214015FEF707FB00216015FEF7F7
:1038000003FB17E0F548844208D101210015FEF7BB
:10381000FBFA00212015FEF7F7FA0BE0F04884428E
:1038200008D10121C803FEF7EFFA00214FF4004050
:10383000FEF7EAFA10BD30B50246002000235068BA
:10384000E84C20400D790C6844EA05242043506080
:103850009068E54C2040D1E902542C434D7944EA6C
:10386000450420439060D06A20F470000C7C641EF4
:10387000E4B2234340EA0350D06230BD002101602E
:10388000017141718160C16001210174704721B1F2
:10389000826842F00102826003E0826822F0010245
:1038A0008260704721B1826842F48072826003E0D6
:1038B000826822F480728260704710B50023CBB218
:1038C0001AB144681C43446002E044689C4344606D
:1038D00010BD816841F008018160704701460020F9
:1038E0008A6802F008020AB1012000E00020704757
:1038F000816841F0040181607047014600208A68B8
:1039000002F004020AB1012000E00020704721B15A
:10391000826842F4A002826003E0826822F4A0027E
:1039200082607047014600208A6802F480020AB172
:10393000012000E00020704710B50A460021002356
:10394000416821F46041531E41EA4331416010BD9A
:1039500021B1426842F40062426003E0426822F40E
:10396000006242607047F0B504460D460020002119
:10397000092D11DDE068A5F10A0606EB46070726CA
:1039800006FA07F18843A5F10A0606EB460603FA94
:1039900006F10843E0600CE0206905EB45070726C7
:1039A00006FA07F1884305EB450603FA06F10843DA
:1039B0002061072A0FDA606B561E06EB86071F266A
:1039C00006FA07F18843561E06EB860605FA06F14D
:1039D0000843606322E00D2A0FDA206BD61F06EB46
:1039E00086071F2606FA07F18843D61F06EB8606D0
:1039F00005FA06F10843206310E0E06AA2F10D0623
:103A000006EB86071F2606FA07F18843A2F10D068A
:103A100006EB860605FA06F10843E062F0BD21B127
:103A2000826842F48012826003E0826822F480128D
:103A3000826070470146C86C80B2704766484C305F
:103A40000068704721B1426842F48062426003E03E
:103A5000426822F480624260704721B1426842F4B9
:103A60008052426003E0426822F480524260704714
:103A70000A460021816821F4E041114381607047CA
:103A800021B1826842F40042826003E0826822F43D
:103A900000428260704721B1826842F40212826063
:103AA00003E0826822F4021282607047014600201F
:103AB0008A6802F400120AB1012000E00020704779
:103AC000F0B504461546002000220026092911DD24
:103AD000E068A1F10A0707EB470C072707FA0CF289
:103AE0009043A1F10A0707EB470703FA07F21043D7
:103AF000E0600CE0206901EB410C072707FA0CF2AB
:103B0000904301EB410703FA07F210432061A06BD9
:103B1000C0F30156EF1C06F1010CA7EB0C0707EBF5
:103B2000870C1F2707FA0CF29043EF1C06F1010CDB
:103B3000A7EB0C0707EB870701FA07F21043A06316
:103B4000F0BD10B50A4600210023816B21F440111D
:103B5000531E41EA0351816310BD08B50023009351
:103B60000090009B0B440093009B1A6008BD08B5B1
:103B7000024600200090009201F12800009B1844AA
:103B800000900098006880B208BD0A460021416894
:103B9000164B194011434160704741628262704781
:103BA0000A460021416821F01F011143416070471E
:103BB00040B109490831096841F40001064A083258
:103BC000116007E004490831096821F40001024A44
:103BD00008321160704700000024014000280140B5
:103BE000003C0140FFFEF0FFFDF7F1FFFFFD3FFF4E
:103BF0000246002013680B400BB1012000E00020BA
:103C00007047CA430260704770B502460020002327
:103C100000240B125568CEB205EA060415681D4053
:103C200015B10CB1012000E0002070BD00220A1285
:103C3000D34303607047000001684FF6FE721140E5
:103C400001600021016041608160C1608D4988424E
:103C500008D18C490839496841F00F01894A083A6E
:103C600051608AE087491431884208D18549083972
:103C7000496841F0F001834A083A51607DE081498A
:103C80002831884208D17F490839496841F4706178
:103C90007C4A083A516070E07A493C31884208D148
:103CA00078490839496841F47041764A083A5160C8
:103CB00063E074495031884208D172490839496833
:103CC00041F470216F4A083A516056E06D49643101
:103CD000884208D16B490839496841F47001694A42
:103CE000083A516049E067497831884208D165490E
:103CF0000839496841F07061624A083A51603CE015
:103D00006149884206D1011F096841F00F01021F75
:103D1000116032E05C491431884208D15A49091FC8
:103D2000096841F0F001584A121F116025E0564918
:103D30002831884208D15449091F096841F470614B
:103D4000514A121F116018E04F493C31884208D196
:103D50004D49091F096841F470414B4A121F116017
:103D60000BE049495031884207D14749091F09688A
:103D700041F47021444A121F1160704710B50022AF
:103D8000026847F6F0739A430C6A8B6823430C6908
:103D900023434C6923438C692343CC6923434C6AF6
:103DA00023438C6A23431A430260CB6843600B6849
:103DB00083604B68C36010BD002101604160816079
:103DC000C160016141618161C161016241628162E1
:103DD000704721B1026842F00102026004E002680B
:103DE0004FF6FE731A40026070471AB103680B4326
:103DF000036002E003688B430360704741607047D3
:103E00000146486880B2704701460020002201F058
:103E100080531BB11C4B083B1A6802E0194B083B4E
:103E20001A6802EA01030BB1012000E0002070478C
:103E300000F0805119B11449091F086002E01149CE
:103E400008394860704701460020002201F0805385
:103E50001BB10D4B083B1A6802E00A4B083B1A687D
:103E600002EA01030BB1012000E00020704700F0DE
:103E7000805119B10449091F086002E0014908395D
:103E800048607047080002400804024008B501215C
:103E90001020FDF79FFF4FF6FF70ADF800001020D7
:103EA0008DF8030003208DF8020069461E48FDF7D7
:103EB000D5FC4FF6FF711C48FDF77DFD08BD70B5C0
:103EC00004460D46BCB9194802780078401C174BCF
:103ED000187001209040C04381B21348FDF774FD73
:103EE0002846FDF700FB1148007808281AD1002069
:103EF0000E49087016E00D4802780078401C0B4B04
:103F0000187080201041C04381B20748FDF75CFD66
:103F10002846FDF7E8FA05480078082802D1002075
:103F20000249087070BD00000010014052000020DE
:103F300008B501214FF4B070FDF74CFF03208DF858
:103F4000020041F20100ADF8000018208DF80300D6
:103F50006946FE48FDF782FC4FF63370ADF800006D
:103F60006946FB48FDF77AFC4FF68070ADF800001B
:103F70006946F848FDF772FC08BD00B597B002200D
:103F800001900020029005200390002006900490EC
:103F900001200590000707900620089000200A9055
:103FA00010200B90000211908000139000200990C7
:103FB00001A81590169001210802FDF7FEFE08A841
:103FC000FFF758F901210620FFF7BCFA17B000BD32
:103FD000E14908807047E049891C08807047DE4944
:103FE000891C0880704710B5FFF7A2FFFFF7C5FFD7
:103FF0004CF2503401E0601E84B2002CFBDC4CF229
:10400000503401E0601E84B2002CFBDC4CF25034D2
:1040100001E0601E84B2002CFBDC4CF2503401E065
:10402000601E84B2002CFBDC4CF2503401E0601EB8
:1040300084B2002CFBDC4CF2503401E0601E84B2F0
:10404000002CFBDC4CF2503401E0601E84B2002CEA
:10405000FBDC0020FFF7BCFF0020FFF7B9FF0A20C0
:10406000FDF741FA0020FFF7B3FF0020FFF7B0FF94
:104070000020FFF7ADFF0020FFF7AAFF0020FFF7A9
:10408000A7FF0020FFF7A4FF0020FFF7A1FF0020FB
:10409000FFF79EFF0A20FDF726FA4FF48060FFF736
:1040A00097FF4FF4C440FFF796FF0820FFF790FFFB
:1040B00040F60800FFF78FFF4FF44070FFF788FFCE
:1040C0000520FFF788FF40F20130FFF781FF44F63B
:1040D0000640FFF780FF40F20230FFF779FF40F221
:1040E0000260FFF778FF40F20330FFF771FF40F204
:1040F0000C50FFF770FF4FF44170FFF769FF4FF46A
:104100004C50FFF768FF40F20530FFF761FF40F6C3
:104110000540FFF760FF40F20630FFF759FF44F219
:104120000620FFF758FF40F20730FFF751FF40F23B
:104130000C60FFF750FF4FF44270FFF749FF4FF458
:10414000A060FFF748FF40F20930FFF741FF33203E
:10415000FFF741FF1020FFF73BFF1420FFF73BFF65
:104160001120FFF735FF40F20110FFF734FF122056
:10417000FFF72EFF0020FFF72EFF1320FFF728FF89
:104180000120FFF728FF4FF48070FFF721FF4FF465
:104190004C70FFF720FF40F20110FFF719FF40F2CB
:1041A0004720FFF718FF40F20310FFF711FF4FF40D
:1041B0008050FFF710FF4FF42070FFF709FF4FF416
:1041C0005E40FFF708FF4FF48170FFF701FF4DF2EB
:1041D000B010FFF700FF0A20FDF785F90120FFF777
:1041E000F7FE0020FFF7F7FE0220FFF7F1FE4FF485
:1041F0008070FFF7F0FE0320FFF7EAFE41F238007F
:10420000FFF7E9FE0920FFF7E3FE0120FFF7E3FED9
:104210000C20FFF7DDFE0020FFF7DDFE9020FFF70A
:10422000D7FE4FF40040FFF7D6FE0F20FFF7D0FE79
:104230000020FFF7D0FE4FF40470FFF7C9FE002006
:10424000FFF7C9FE40F21120FFF7C2FEEF20FFF793
:10425000C2FE40F21220FFF7BBFE0020FFF7BBFEBC
:1042600040F21320FFF7B4FE40F28F10FFF7B3FEC9
:104270004FF4A060FFF7ACFE0020FFF7ACFE40F269
:104280000150FFF7A5FE0020FFF7A5FE40F2025007
:10429000FFF79EFE5F20FFF79EFE40F20140FFF712
:1042A00097FE0120FFF797FE40F20440FFF790FED3
:1042B0000020FFF790FE0A20FDF715F90720FFF711
:1042C00087FE4FF48070FFF786FE0A20FDF70BF99A
:1042D0004FF40070FFF77CFE0020FFF77CFE40F2F9
:1042E0000120FFF775FE0020FFF775FE0A20FDF79D
:1042F000FAF840F20220FFF76BFE10BD30B505461C
:104300000C4640F21220FFF763FE2846FFF763FEDB
:1043100040F21320FFF75CFE1046FFF75CFE4FF4FF
:104320000470FFF755FE2046FFF755FE40F21120BE
:10433000FFF74EFE1846FFF74EFE40F20120FFF752
:1043400047FE2846FFF747FE08E000000020014036
:104350000014014000180140FE07006C4FF400708B
:10436000FFF736FE2046FFF736FE40F20220FFF749
:104370002FFE30BD70B50646EF2340F28F120021AC
:104380000846FFF7BBFF00240AE0002504E03046A2
:10439000FFF725FE681C85B2F02DF8DB601C84B2A7
:1043A000B4F5C87FF1DB70BD70B504460D46164606
:1043B0002B46224629462046FFF7A0FF3046FFF74E
:1043C0000EFE70BD2DE9FF4F85B081468A46002064
:1043D000039083460798A0EB09050898A0EB0A060E
:1043E000CDF80490CDF808A0002D01DD012705E0EF
:1043F0000DB9002702E04FF0FF376D42002E02DDBD
:104400004FF0010806E016B94FF0000802E04FF047
:10441000FF387642B54201DD2C4600E034460020EC
:1044200004901EE0129ADDE90101FFF7BDFF039839
:1044300028440390B3440398A04206DD0398001B70
:1044400003900198384480B20190A34505DDABEBA1
:10445000040B0298404480B202900498401C80B241
:104460000490611C04988842DCDD09B0BDE8F08F3F
:104470002DE9F84305460E4617469846089C3346F4
:104480003A46314628460094FFF79CFF43462A46A9
:10449000314628460094FFF795FF43463A46414689
:1044A00028460094FFF78EFF43463A463146384689
:1044B0000094FFF787FFBDE8F88370B504460D460A
:1044C0001646324629462046FFF76EFF70BD2DE99D
:1044D000F05F07460D4616469846AB4600243BE083
:1044E000102C05DABA4901EB461010F8049009E0E7
:1044F000012000EB4600B64901EB0011A4F11000C9
:1045000011F800904FF0000A20E009F0800028B177
:10451000424629463846FFF7D0FF05E048F23042D0
:1045200029463846FFF7C9FF4FEA49604FEA10694C
:10453000681C85B2A5EB0B00102803D15D46781CE2
:1045400087B206E00AF1010000F0FF0ABAF1080F95
:10455000DBDB00BF601CC4B2202CC1DBBDE8F09FD8
:104560002DE9F05F07460D4616469846AB460024F7
:1045700050E0182C09DA06EB460000EB40009549A4
:1045800001EBC00010F804901AE0302C0CDA06EBB6
:104590004600401C00EB40008E4901EBC001A4F135
:1045A000180011F800900BE006EB4600801C00EBB1
:1045B0004000884901EBC001A4F1300011F80090DF
:1045C0004FF0000A20E009F0800028B14246294659
:1045D0003846FFF772FF05E048F230422946384678
:1045E000FFF76BFF4FEA49604FEA1069681C85B21C
:1045F000A5EB0B00182803D15D46781C87B206E0B6
:104600000AF1010000F0FF0ABAF1080FDBDB00BF7E
:10461000601CC4B2482CACDBBDE8F09F70B5322002
:1046200005460646002415E04FF478432246322121
:104630003046FFF74CFF4FF4784322464621284688
:10464000FFF78EFF06F11000C6B205F11800C5B2E3
:10465000601CC4B2072CE7DB70BD2DE9F0470446AF
:104660000D4616461F46DDF82080B44201DCBD42EF
:1046700001DDBDE8F0873B46324629462046FFF77C
:104680003DFE301B401C84B2781B401C85B20BE001
:10469000A94602E04046FFF7A2FC5FEA0900A9F143
:1046A00001011FFA81F9F5D12000A4F101018CB2BA
:1046B000EED100BFDDE72DE9F04104460D46174677
:1046C00005F1010C1FFA8CF304F1010C1FFA8CF2B6
:1046D000A5F1010C1FFA8CF1A4F1010C1FFA8CF06A
:1046E000FFF70CFE002604E03846FFF778FC701C4C
:1046F000C6B2092EF8DB211D8AB2211F88B22B46D3
:104700002946FFF7FBFD002604E03846FFF767FC6B
:10471000701CC6B2092EF8DB281D83B2281F81B297
:1047200022462046FFF7EAFD002604E03846FFF760
:1047300056FC701CC6B2092EF8DBBDE8F0812DE9ED
:10474000F05F04460E46154698463BE02878203830
:1047500000F0FF0A06F10F0083B2E01D82B231467D
:104760002046FFF7CBFD00271FE01B4800EB0A1097
:1047700010F807B04FF0000912E00BF0800080281D
:1047800003D14046FFF72BFC02E00A98FFF727FC15
:104790004FF6FF7000EA4B0B09F1010000F0FF0932
:1047A000B9F1080FE9DB781CC7B2102FDDDB6D1CF7
:1047B00004F1080084B2B4F5C47F03DD002406F1DF
:1047C000100086B228780028C0D1BDE8F09F000014
:1047D000D85C0008B85E0008D85600080EB541F64F
:1047E0001F40ADF800000020ADF8020042F210704A
:1047F000ADF804000020ADF8060069464FF0804097
:10480000FDF7B2FE012211469007FEF724FA0021BF
:104810004FF08040FEF704FA0EBD0EB500231A4695
:1048200019462B48FEF793FA0020ADF80000ADF8CA
:1048300002004FF6FF70ADF804000020ADF806004E
:1048400069462348FDF790FE012211462048FEF7F5
:1048500002FA00211E48FEF7E3F90EBD00B587B04D
:104860004720ADF810000020ADF812000120ADF88F
:1048700014000020ADF8160004A91648FDF774FED8
:1048800000211448FEF7CCF96020ADF800000120AB
:10489000ADF80200ADF806000020ADF8080069464A
:1048A0000C48FDF79EFE01210A48FEF7C5F907B046
:1048B00000BD10B5FFF792FFFFF7AFFFFFF7CEFF88
:1048C00010BD10B501218807FEF7AAF910BD000040
:1048D00000040040002C014000B58BB09048FFF769
:1048E000ABF99048009090480190002002904FF45E
:1048F00020700390002004908020059040000690D6
:1049000080000790002008904FF44050099000204C
:104910000A9069468248FFF731FA01218048FFF783
:1049200058FA0BB000BD00B585B07E484C38FEF794
:104930005BFF002000908DF804008DF805000290C8
:10494000039001208DF81000694676484C38FEF738
:1049500072FF012173484C38FFF761F800230122F0
:10496000022170484C38FEF7FEFF05B000BD10B5BF
:10497000FFF7B2FFFFF7D7FF01216A484C38FEF777
:1049800091FF012167484C38FEF781FF65484C389C
:10499000FEF79FFF00BF63484C38FEF79FFF0028DB
:1049A000F9D160484C38FEF7A3FF00BF5D484C3892
:1049B000FEF7A3FF0028F9D110BD2DE9FE4F00201E
:1049C0000290FFF789FF00215848FEF7BDFB5848C9
:1049D000007807281BDD012247215448FEF7C7F95C
:1049E00054480068192190FBF1F0401E84B2214622
:1049F0004E48FEF7ADFB4F480068192190FBF1F0DF
:104A0000401E84B221464948FEF7A0FB34E0012253
:104A100000214648FEF7ABF94748006800F028FD42
:104A200006460F464548006800F027FB02460B4645
:104A3000CDE900010020424900F09AF98046324653
:104A40003B4600F0EDF8044600223E4B00F026FC09
:104A5000824600F0B3F80290029800F041FD84B263
:104A600021463248FEF774FB029800F039FD84B20B
:104A700021462E48FEF76AFB01212C48FEF7D0F8AC
:104A800000BF0220FFF7C0F90028FAD00220FFF78C
:104A9000CFF90820FFF7B8F920B10820FFF7C8F9CF
:104AA000FFF78BFF00212148FEF7BAF8BDE8FE8F23
:104AB0002DE9F05F1C48B0F80090B0F800A0002489
:104AC000A346012412E0184830F81400484502D9E2
:104AD000154830F81490144830F81400504504D2AA
:104AE000114830F814A018490C80641CB4F5A07F5C
:104AF000E9D3A9EB0A0000F02BFD8346584600F0ED
:104B0000B7FC0746114A124B00F0CAFA054600F0FE
:104B100055F88346584600F0E3FC80B2BDE8F09FAC
:104B2000080002404C2401402C010020002C0140D0
:104B30001400002010000020180000205C0000205D
:104B4000882AB1410000F03F600000209A9CC9997A
:104B50009CC9E93F7047704770477047704775467A
:104B600000F028F8AE4605006946534620F00700DD
:104B7000854618B020B5FCF791FDBDE820404FF008
:104B800000064FF000074FF000084FF0000B21F037
:104B90000701AC46ACE8C009ACE8C009ACE8C00904
:104BA000ACE8C0098D4670470446AFF3008020464C
:104BB000FBF705FB004870472C06002021F000425F
:104BC000A2F16052B2F5801F01F0004328BFD2F17C
:104BD0007F6C0BD95FEA001C43EAC20242EB5070C3
:104BE00018BF704728BF20F001007047B2F5801F42
:104BF000BCBF184670474FEA410C1CF5001F02D29B
:104C0000084600F033BD70B500F0F4FA00000089EA
:104C1000FFF7F6BF4FF00040A0F58000704700009E
:104C200010B591EA030F48BF83F0004300F13E83C3
:104C3000841A71EB030C05D2121943EB0C03001B11
:104C400061EB0C01DFF824E14FEA1154A4EB135C93
:104C50001EEA430F18BF9EEA445F73D023EA0E0397
:104C6000DCF1200E21EA045143F4801332D322FAFE
:104C70000CFE10EB0E0023FA0CFE41EB0E01CCF102
:104C8000200E03FA0EFE10EB0E0051F10001B1F5FB
:104C9000801FCCF1200E32D201EB045112FA0EF239
:104CA000BDE8104058BF7047401C38BF5FEA420261
:104CB00018BF7047002814BF20F0010041F1000127
:104CC0004FEA410313F5001F38BF7047A1F1C041FF
:104CD00000F0DEBA012A43EB0302ACF1200CDCF158
:104CE0001F0E32BF4FF0000E23FA0CF310EB03003F
:104CF00041EB0451B4EB115FD0D0A1EB045101F5AD
:104D0000801149085FEA300001EB04510ED350F1E5
:104D1000000038BF12FA0EFE08D1BDE81040C9E706
:104D2000401C38BF5FEA4202CAD1C3E7BDE8104069
:104D30004FEA410313F5001F38BF7047A1F1C0418E
:104D400000F0A6BA9EEA445F08D011EA5E0FBDE803
:104D5000104004BF01F0004100207047BDE8104042
:104D600070B500F047FA00BF64FBBE3E0000E0FFF4
:104D70002DE9C04130B4DFF8A0C23CEA111418BFDD
:104D80003CEA131400F0EC8081EA03051CEA1114DC
:104D900044EAD57418BF1CEA131500F0C780A4EBD1
:104DA00005044FF0004545EAC12145EAC32341EA25
:104DB000505143EA525304F17F74994204F5003490
:104DC0004FEAC0204FEAC22208BF904200F09C8008
:104DD0004FEA13650FF24016765D4FEA134506FB66
:104DE00005F7C7F1807706FB07F74FEAD737A7FB30
:104DF00003687642C8F58038A7FB06CE38BFA8F115
:104E0000010807FB08E64FF0000EA6FB028CE6FB4C
:104E100003CEDCF1000CCEF1004E38BFAEF1010E36
:104E2000A6FB0C584FF000074FF00005E6FB0E877D
:104E3000A1FB08C6A0FB07CE16EB0E0645F1000548
:104E4000E1FB076515F1E04E7EBFA4F580345FEA13
:104E500046066D4116F1800745F100054FEA172718
:104E60004FEA066647EA0567A6F1DE46B6F1805FBF
:104E70004FEA15251FD9384624F0010C05EBC47103
:104E8000BCF1FE6F01EB0C1102D8F0BCBDE8008153
:104E900024425CBF01F5801E9EEAC47F02D4F0BCB0
:104EA000BDE80081244238D4F0BCA1F1C041BDE886
:104EB000004100F0EDB94FEAD22242EA43524FEAF4
:104EC000D323A7FB02864FEAD02040EA415007FBDC
:104ED00003661EEA0E0F4FEAD12105FB026658BF9A
:104EE000A6EB0056B6EB00564FEA520E4EEAC37ED2
:104EF00018EB0E0E56EB530EBDD518EB02085E41B3
:104F00007F1C55F10005B6E74FF480154FF0000700
:104F10004FF000064FF00008ADE7F0BC4FF0000086
:104F200001F1C04101F00041BDE8008111EA0C1F10
:104F30000CEA131500D00CE013EA0C1F00F02580DA
:104F40004FF00000F0BC81EA030101F00041BDE830
:104F50000081F0BCBDE8004181EA030100F098B98E
:104F6000F0BCBDE8004170B500F044F9097EFC3E9C
:104F700000F007B881EA03014FF0000001F00041A2
:104F8000704781EA030100F083B9F0BCBDE800413D
:104F90004FF0000021497047FFFDFBF9F7F5F4F2EF
:104FA000F0EEEDEBE9E8E6E4E3E1E0DEDDDBDAD8C4
:104FB000D7D5D4D3D1D0CFCDCCCBCAC8C7C6C5C422
:104FC000C2C1C0BFBEBDBCBBBAB9B8B7B6B5B4B339
:104FD000B2B1B0AFAEADACABAAA9A8A8A7A6A5A424
:104FE000A3A3A2A1A09F9F9E9D9C9C9B9A999998E8
:104FF0009797969595949393929191908F8F8E8E8B
:105000008D8C8C8B8B8A8989888887878685858417
:1050100084838382828181800000FF070000F87F03
:105020004FEA1153A3F58063D3F11E03A8BFD3F158
:10503000200C08DB4FF0004242EAC12252EA5052F3
:1050400032FA03F0704709420BD4102BC4BF002082
:10505000704703F5787CBCF1FF3F05D04FF0FF307F
:1050600070474FF00000704770B500F0C3F800BF04
:105070004992248000207047F0E7B0FA80F310FADC
:1050800003F10AD0C3F11D0303F580634FEA4150D9
:105090004FEA035202EBD12170474FF000007047F6
:1050A000DFF848C170B51CEA111E1EBF1CEA1315BB
:1050B0009EEA0C0F95EA0C0F00F06F8081EA030462
:1050C00023EA4C134EEAD47E21EA4C1141F48011BC
:1050D00043F48013AE44A1FB024CA0FB0365AEF188
:1050E0007F7E361955EB0C05A1FB034C4CF10003F8
:1050F000A0FB021C16EB0C06654153F100030942AC
:1051000018BF46F0010613F4007F0BD14FEA0331BC
:105110004FEA0530340341EA155140EA16506FF06A
:1051200003020AE04FEAC3214FEAC520F40241EA34
:10513000555140EA56506FF0020202EB2E4201EB4D
:10514000025585EACE710AD05FEA440C18BF24F0FC
:10515000004450F1000041F1000120EAD47040F217
:10516000FE7C624500D270BDA84214BF4FF080445F
:105170004FF04044002E08BF0024BEF1806FA8BF4E
:10518000A1F1C041BDE8704080F282804FF0000084
:1051900001F1C04101F0004170479EEA0C0F0CEA9A
:1051A000131518BF95EA0C0F06D04FF0000081EAE6
:1051B000030E0EF0004170BD00F01CF88900013EA6
:1051C00000F007B800F009B84FEA430C5FEA5C5CF6
:1051D00008D081EA030100F05BB84FEA410C5FEAB6
:1051E0005C5CF6D14FF00000014970470000FF07FA
:1051F0000000F87F0EF1020E2EF0030E5EF8046B35
:10520000364205D4012A43EB030515F5001F12D8D9
:10521000012841EB010C1CF5001F0CD80ED14FEA00
:10522000D17C15F5001F0CEB4C0C0CF1020C08BFE7
:105230004CEBD37C04E04FF0080C01E04FEAD37C48
:105240000CEB4C0526FA05F606F00706B6F1040C41
:1052500006D20EEB860CBDE870404CF0010C6047A6
:10526000DFE80CF0090B02024FF000414FF00000A4
:10527000A1F5002170BD19461046012851EB01042B
:1052800018BFD4F5001484BF002001F0004170BDA8
:105290000808A0F500114FEA3101704710B591EAF6
:1052A000030F48BF83F000433FF5C2AC841A71EB93
:1052B000030C07D212198CF0004C43EB0C03001BBB
:1052C00061EB0C01DFF8A4E14FEA1154A4EB135C8D
:1052D0001EEA430F18BF9EEA445F00F0B08023EA45
:1052E0006E03524221EA0451C3EB6E0338BF5B1ECA
:1052F000DCF1200E25D322FA0CFE10EB0E0043FA4F
:105300000CFE41EB0E01CCF1200E03FA0EFE10EB69
:105310000E0051F10001CCF1200E29D412FA0EF248
:1053200001EB0451BDE8104058BF7047401C1CBF42
:10533000B2F1004F704700280CBF491C20F001005B
:10534000704712EB020E43EB030218BF4FF0010E41
:105350004EEA4202ACF1200CDCF11E0E54D943FAA5
:105360000CFE10EB0E0051F1FF31CCF11E0ED5D525
:105370000EF1010E12FA0EFE404141EB010101EB6C
:10538000445C5FEA5C5C10D910EBDE7001EB045109
:1053900038BFBEF1004FBDE8104018BF704700286D
:1053A0000CBF491C20F00100704730D24FEAD42CCA
:1053B00011F5001124F400641BD0B1FA81F20B3A0C
:1053C000A41AA41ED2F12003914030FA03F319432A
:1053D000904001EBCC71002C01EB0451BDE8104072
:1053E000A8BF704701F1C0414FF0000001F000413B
:1053F0007047B0FA80F310FA03F100D110BDE41A3F
:10540000173C4805C90AE4E701EB045110BD4910F7
:1054100001EB0451BDE810404FEA300002E04FF0CC
:10542000000170474A0008BF0042F8D0B2F5001FE3
:1054300028BF704701F000414FF0000070479EEA1E
:10544000445F07D011EA5E0FBDE8104004BF0021A1
:1054500000207047BDE8104070B5FFF7CBFE00BFDD
:1054600040DFF63E83F00041104670470000E0FF49
:1054700043004FEAD30C4FEA3C0C43401FBF4007A8
:105480000CF1605113F0FE4F70471CF0006F03D118
:1054900000200CF0004170470CF0004343EA5070CC
:1054A00010B540EACC0000F09BF800BF000000926D
:1054B0004FEA0001FFF7ECBE4FF000414FF0000053
:1054C000A1F500217047401058BFC0F1404049107D
:1054D00058BFC1F140418142EFF3008070470000A6
:1054E000C10DD1F19E0206DB4FEA002343F00043D9
:1054F00023FA02F07047004207D54FEA4001B1F1AC
:10550000FE4F02D24FF00000704710B500F068F86F
:1055100049922480002070476FEA20007047000005
:1055200010F0004148BF4042B0FA80F310FA03F295
:10553000C3F19D030BD051EAC35101EB1220530676
:1055400038BF704700F1010008BF20F0010070472C
:10555000B0FA80F310FA03F2C3F19D030AD0D90523
:1055600001EB1220530638BF704700F1010008BF5D
:1055700020F001007047000050EA010C00F1138098
:105580001CF5000F58BFBCF5000F01D488427047CE
:1055900007D710F5000F58BF11F5000F15D488423A
:1055A0007047894270471CF5000F04D5BCF5000F09
:1055B000F7D5814270474FF0807C1CEB400F38BF1D
:1055C0001CEB410F01D28142704710B500F008F882
:1055D000922449004FF000504FF08051FFF773BF05
:1055E0000EF1020E2EF0030E5EF8044B244204D49A
:1055F0004FEA4102B2F17F4F11D84FEA4003B3F1B5
:105600007F4F0CD80ED14FEAD07CB2F17F4F0CEB1C
:105610004C0C0CF1020C08BF4CEBD17C04E04FF0B9
:10562000080C01E04FEAD17C0CEB4C0324FA03F4A4
:1056300004F00704B4F1040C06D20EEB840CBDE8B0
:1056400010404CF0010C6047DFE80CF00708020244
:105650004FF00040A0F5800010BD0846420018BF82
:10566000D2F1807288BF00F0004010BDFF2141EAF6
:10567000D050C005704751EA000C00F113801CF5B2
:10568000000F58BFBCF5000F01D48142704707D707
:1056900011F5000F58BF10F5000F15D48142704767
:1056A000894270471CF5000F04D5BCF5000FF7D5F3
:1056B000884270474FF0807C1CEB410F38BF1CEBD9
:1056C000400F01D28842704780EA010081EA000160
:1056D00080EA0100FFF779BF000000000000000031
:1056E000000000000000000000000010101010106A
:1056F00010100000181800000012362448000000A6
:105700000000000000000000000000242424FE48E7
:105710004848FE48484800000000103854545030B3
:10572000181414545438101000000044A4A8A8A859
:10573000541A2A2A2A4400000000003048484850E1
:105740006EA494888976000000606020C00000008C
:105750000000000000000000000204080810101003
:10576000101010080804020000402010100808085B
:105770000808081010204000000000001010D63863
:1057800038D61010000000000000000010101010AB
:10579000FE101010100000000000000000000000CB
:1057A00000000000606020C0000000000000000059
:1057B0007F0000000000000000000000000000006A
:1057C0000000000060600000000001020204040804
:1057D00008101020204040000000001824424242DF
:1057E00042424242241800000000001070101010C5
:1057F00010101010107C00000000003C42424204D7
:1058000004081020427E00000000003C42420418C0
:105810000402024244380000000000040C14242456
:1058200044447E04041E00000000007E40404058B6
:1058300064020242443800000000001C244040582A
:1058400064424242241800000000007E44440808DC
:1058500010101010101000000000003C42424224C2
:1058600018244242423C00000000001824424242F8
:10587000261A020224380000000000000000181858
:1058800000000000181800000000000000000010D8
:10589000000000000010102000000002040810208A
:1058A0004020100804020000000000000000FE007C
:1058B0000000FE000000000000000040201008046E
:1058C00002040810204000000000003C4242620236
:1058D000040808001818000000000038445AAAAA5A
:1058E000AAAAB4424438000000000010101828286A
:1058F000243C444242E70000000000F8444444785D
:105900004442424244F800000000003E424280808F
:105910008080804244380000000000F84442424247
:105920004242424244F80000000000FC42484878ED
:105930004848404242FC0000000000FC42484878D1
:105940004848404040E000000000003C4444808063
:10595000808E844444380000000000E74242424206
:105960007E42424242E700000000007C101010100E
:1059700010101010107C00000000003E08080808FD
:1059800008080808080888F0000000EE4448507035
:105990005048484444EE0000000000E040404040D1
:1059A0004040404042FE0000000000EE6C6C6C6C19
:1059B0005454545454D60000000000C7626252523E
:1059C0004A4A4A4646E20000000000384482828289
:1059D0008282828244380000000000FC424242423F
:1059E0007C40404040E00000000000384482828259
:1059F0008282B2CA4C380600000000FC4242427C5F
:105A00004848444442E300000000003E4242402037
:105A100018040242427C0000000000FE92101010A8
:105A20001010101010380000000000E742424242FF
:105A300042424242423C0000000000E7424244240D
:105A40002428281810100000000000D6929292928C
:105A5000AAAA6C4444440000000000E74224241831
:105A60001818242442E70000000000EE44442828CF
:105A700010101010103800000000007E8404080888
:105A80001020204242FC0000001E101010101010C8
:105A90001010101010101E000000404020201010A8
:105AA000100808040404020200780808080808081E
:105AB0000808080808087800001C22000000000000
:105AC00000000000000000000000000000000000D6
:105AD00000000000000000FF0000000000000000C7
