:020000040800F2
:100000000012002059230008612300086323000820
:10001000652300086723000869230008000000002A
:100020000000000000000000000000006B2300083A
:100030006D230008000000006F23000871230008F2
:100040007323000873230008732300087323000838
:10005000732300087323000805150008F306000841
:1000600061170008C7180008251B00087323000843
:100070007323000873230008732300087323000808
:1000800073230008732300087323000873230008F8
:1000900073230008732300087323000873230008E8
:1000A00073230008732300087323000873230008D8
:1000B000551D000825060008732300087323000857
:1000C00073230008732300087323000873230008B8
:1000D00073230008732300087323000873230008A8
:1000E0007323000873230008732300087323000898
:1000F0007323000873230008732300087323000888
:100100007323000873230008732300087323000877
:100110007323000873230008732300087323000867
:100120007323000873230008732300087323000857
:1001300000F002F800F05AF80AA090E8000C82449F
:100140008344AAF10107DA4501D100F04FF8AFF27C
:10015000090EBAE80F0013F0010F18BFFB1A43F0A5
:100160000103184758710000787100000A444FF0ED
:10017000000C10F8013B13F0070408BF10F8014B06
:100180001D1108BF10F8015B641E05D010F8016B4B
:10019000641E01F8016BF9D113F0080F1EBF10F8AF
:1001A000014BAD1C0C1B09D16D1E58BF01F801CBD2
:1001B000FAD505E014F8016B01F8016B6D1EF9D555
:1001C0009142D6D37047000000230024002500266A
:1001D000103A28BF78C1FBD8520728BF30C148BFAA
:1001E0000B6070471FB51FBD10B510BD05F0B3FD06
:1001F0001146FFF7F7FF00F08BFA05F0D1FD03B4CD
:10020000FFF7F2FF03BC05F0D5FD000070B5054611
:1002100000244FF6FF70FC49088000BF07E0FA4851
:1002200002882146284600F021FF601CC4B2C92C78
:10023000F5DB1F20F449088070BD08B54FF4A060BD
:1002400002F0AAF806208DF8000002208DF80100C7
:1002500000208DF8020001208DF80300684602F0AE
:10026000A0F808208DF8000002208DF80100002081
:100270008DF8020001208DF80300684602F091F825
:1002800009208DF8000002208DF8010001208DF872
:1002900002008DF80300684602F083F80A208DF80A
:1002A000000002208DF801008DF8020001208DF879
:1002B0000300684602F075F81C208DF8000000204D
:1002C0008DF8010003208DF8020001208DF8030055
:1002D000684602F066F81D208DF8000000208DF8B9
:1002E000010001208DF802008DF80300684602F03D
:1002F00058F808BD70B504460D4602F069FA4FF48F
:10030000803002F085FA02F0C2FA01281ED10020E6
:1003100002F003FB4FF4806002F008FB002002F0C3
:100320000EFB2946204602F0DBFA012002F0E4FA37
:1003300000BF392002F08FFA0028FAD0022002F024
:10034000DEFA00BF02F0E4FA0828FBD170BD10B558
:100350004FF4A0114FF48030FFF7CCFF0121202093
:1003600002F0A4FB0121084602F0ADFB01210220AE
:1003700002F0A9FB0121C80202F098FB01214520EF
:1003800002F094FB0121480202F090FB4FF4804000
:1003900002F0F0FA0121084602F07BFB10BD08B51F
:1003A0000420ADF8000003208DF8020004208DF831
:1003B00003006946954802F0BDF80420ADF800003E
:1003C00003208DF8020000208DF803006946904854
:1003D00002F0B0F81C20ADF8000003208DF80200F8
:1003E00048208DF8030069468A4802F0A3F80120EE
:1003F000ADF8000003208DF8020028208DF80300DE
:100400006946834802F096F84FF48070ADF800001A
:1004100003208DF8020018208DF8030069467C48FF
:1004200002F088F80820ADF8000003208DF80200E3
:1004300010208DF803006946754802F07BF8102003
:10044000ADF8000003208DF8020010208DF80300A5
:1004500069466F4802F06EF82020ADF800000320D6
:100460008DF8020010208DF803006946684802F0FC
:1004700061F84020ADF8000003208DF80200102044
:100480008DF803006946624802F054F88020ADF808
:10049000000003208DF8020010208DF8030069464B
:1004A0005B4802F047F808BD1FB50121084602F07D
:1004B000FDFA0121402002F0F9FA0220ADF80C000B
:1004C00048208DF80F0003208DF80E0003A9514835
:1004D00002F030F80121042002F042F902200190DC
:1004E00000208DF808000C208DF8090001208DF8FF
:1004F0000A0001A802F050FD4FF4C06001F04CFF6B
:1005000007208DF8000000208DF8010002208DF8F2
:10051000020001208DF80300684601F042FF1FBD74
:100520001FB50121022002F0CEFA01213A4803F062
:10053000BDFC4FF4FA60ADF8080046F65F50ADF828
:1005400004000020ADF80A0001A9334802F078FE4B
:100550000121314803F0D0F9012211462E4803F061
:10056000E6F94FF4C06001F017FF1D208DF8000080
:1005700000208DF8010001208DF802008DF80300A5
:10058000684601F00EFF1FBD10B586B0044601217C
:10059000082002F08BFA0121880402F094FA4FF44B
:1005A0008060ADF8140003208DF8160018208DF837
:1005B000170005A9194801F0BDFF4FF40060ADF820
:1005C000140004208DF8170005A9144801F0B2FFAB
:1005D00001940020ADF80800ADF80A00ADF80C0059
:1005E000ADF810000820ADF80E0001A90C4802F08B
:1005F00004FB01210A4802F08CFB4021084802F06C
:1006000070FC06B010BD00009002002000140140F4
:10061000000801400018014000040040000C0140A7
:100620000048004010B50121FE4803F03FFCFE48A1
:100630000068FE49086008460068FD49B0FBF1F01B
:100640000A21B0FBF1F201FB12003030F9490870C9
:10065000F6480068F849B0FBF1F00A21B0FBF1F26E
:1006600001FB12003030F3494870F048006842F254
:100670001071B0FBF1F00A21B0FBF1F201FB1200A6
:100680003030EC498870E94800684FF47A71B0FB6B
:10069000F1F00A21B0FBF1F201FB12003030E54924
:1006A000C870E24800686421B0FBF1F00A21B0FB99
:1006B000F1F201FB12003030DE490871DB480068BE
:1006C0000A21B0FBF1F0B0FBF1F201FB1200303077
:1006D000D8494871D54800680A21B0FBF1F201FB06
:1006E00012003030D34988710020C871CE490860AB
:1006F00010BD10B5022002F0B5FC012807D1022080
:1007000002F0C1FCC8480068401CC749086010BD21
:1007100088B000252E208DF812008DF81A002520B3
:100720008DF80E0020208DF808002E208DF80B008B
:1007300000208DF80F00FFF70AFE01F0A3FD04F082
:1007400011FAFFF77AFDFFF72AFE00F06EFE04F0C3
:1007500078FF04F01AFF04F01EFFFFF7A5FEFFF775
:10076000DFFE04F0ACFA4FF6FF7004F06FFC00F00F
:10077000F0FC4FF41650FFF707FF04F088FF04F079
:10078000C6FFAE49088005F01FF80546FAE31F20B2
:10079000AB490880AB4800680028F7D10026AA487A
:1007A000006800287ED1A9480088A9490880A6E1F0
:1007B000A848008805F022FF8246A749A44A12886B
:1007C00031F8121040F6E44201FB02F005F0FEFEA3
:1007D0008346A2480168584605F058FF81464FF00D
:1007E0008B4105F011FE80469D4905F04FFF0746FD
:1007F000514605F009FE9B4908609648008805F0BF
:10080000FDFE8246944A92490988491C32F811102B
:1008100040F6E44201FB02F005F0D8FE83468F4823
:100820000168584605F032FF81464FF08B4105F0D4
:10083000EBFD80468A4905F029FF0746514605F041
:10084000E3FD8949086089498648006805F0EAFFA8
:1008500002D286488349086000218248006805F07A
:10086000E1FE02D200207F49086080497E4800688E
:1008700005F0D8FF02D27D487B49086000217A4804
:10088000006805F0CFFE02D2002077490860704969
:1008900009886E4A1288891A88B2FFF7B7FC714836
:1008A000006800E034E105F071FE87B2684909880C
:1008B000664A1288891A88B261490A88394600F066
:1008C000D5FB6948006805F061FE1FFA80F86548AD
:1008D000006805F05BFE87B2594800885C490090CB
:1008E00009885A4B1B88C91A491C8AB25849098879
:1008F000564B1B88C91A88B24346394600F0C2FBE2
:1009000000F0D6FB57480068594941F82600761C8C
:100910000020584908704FF47A7095FBF0F00A21D6
:1009200090FBF1F201FB12003030C0B28DF80900EB
:10093000642095FBF0F090FBF1F201FB12003030E7
:10094000C0B28DF80A000A2095FBF0F090FBF1F29E
:1009500001FB12003030C0B28DF80C000A2095FB6C
:10096000F0F100FB11503030C0B28DF80D004FF6A1
:10097000FF70431102AA8E2100904FF4837004F09F
:100980004AFD354A32490988491C32F8111040F6AF
:10099000E44201FB02F005F019FE81462F48016890
:1009A000484605F073FE8046334905F02DFD0746A5
:1009B00005F0ECFD84B242F2107094FBF0F03030A0
:1009C000C0B28DF8100042F2107094FBF0F100FB01
:1009D00011404FF47A7190FBF1F03030C0B28DF8D5
:1009E000110042F2107094FBF0F100FB11404FF443
:1009F0007A7190FBF1F201FB1200642190FBF1F09F
:100A00003030C0B28DF8130042F2107094FBF0F158
:100A100000FB11404FF47A7190FBF1F201FB1200E0
:100A200064212BE000040040940200200C00002010
:100A300040420F0010000020A08601002A00002084
:100A40009002002034000020380000209C0200208A
:100A50000000002028000020A0060020A80200209E
:100A60000000C841040000200800002000004843A6
:100A7000B8020020A102002000F07F4590FBF1F2B7
:100A800001FB12000A2190FBF1F03030C0B28DF86A
:100A9000140042F2107094FBF0F100FB11404FF48F
:100AA0007A7190FBF1F201FB1200642190FBF1F2EC
:100AB00001FB12000A2190FBF1F201FB1200303021
:100AC000C0B28DF8150000208DF816004FF6FF70AB
:100AD000431104AA162100904FF4837004F09BFC8C
:100AE0004FF6FF704311FE4A662100904FF4837069
:100AF00004F091FCFB480088401CFA490880F94842
:100B00000188F9480088FA308142FFF651AE9EE133
:100B1000F648007828B904F077FE0120F349087000
:100B200003E0F348006804F099FEEF480088ED49BF
:100B3000088079E1EF48008805F060FD8246EE49C3
:100B4000E84A128831F8121040F6E44201FB02F044
:100B500005F03CFD8346E9480168584605F096FDDE
:100B600081464FF08B4105F04FFC8046E44905F08B
:100B70008DFD0746514605F047FCE2490860DD4817
:100B8000008805F03BFD8246DB4AD6490988491CAE
:100B900032F8111040F6E44201FB02F005F016FDB8
:100BA0008346D6480168584605F070FD81464FF0EF
:100BB0008B4105F029FC8046D14905F067FD0746C9
:100BC000514605F021FCD0490860D049CD48006865
:100BD00005F028FE02D2CD48CA4908600021C94864
:100BE000006805F01FFD02D20020C6490860C74911
:100BF000C548006805F016FE02D2C448C249086024
:100C00000021C148006805F00DFD02D20020BE4958
:100C10000860BC48006805F0B9FC87B2B149098892
:100C2000B14A1288891ABA4A1288514388B21F22DF
:100C3000394600F01BFAB448006805F0A7FC1FFA1B
:100C400080F8B048006805F0A1FC87B21F20A549D4
:100C500000900988A44B1B88C91A491CAC4B1B88FF
:100C600059438AB29F4909889F4B1B88C91AA84BD0
:100C70001B88594388B24346394600F003FAA1481D
:100C8000006898490988984A1288891AA14A42F846
:100C900021009F480068964908604FF47A7095FBE0
:100CA000F0F00A2190FBF1F201FB12003030C0B2EB
:100CB0008DF80900642095FBF0F090FBF1F201FB48
:100CC00012003030C0B28DF80A000A2095FBF0F017
:100CD00090FBF1F201FB12003030C0B28DF80C0035
:100CE0000A2095FBF0F100FB11503030C0B28DF8B6
:100CF0000D004FF6FF70431102AA8E2100904FF4B1
:100D0000837004F088FB7C4A76490988491C32F8D4
:100D1000111040F6E44201FB02F005F057FC814659
:100D200076480168484605F0B1FC80467A4905F0EE
:100D30006BFB074605F02AFC84B242F2107094FB6C
:100D4000F0F03030C0B28DF8100042F2107094FB19
:100D5000F0F100FB11404FF47A7190FBF1F030306C
:100D6000C0B28DF8110042F2107094FBF0F100FB5C
:100D700011404FF47A7190FBF1F201FB12006421F3
:100D800090FBF1F03030C0B28DF8130042F21070D9
:100D900094FBF0F100FB11404FF47A7190FBF1F2FB
:100DA00001FB1200642190FBF1F201FB12000A2109
:100DB00090FBF1F03030C0B28DF8140042F21070A8
:100DC00094FBF0F100FB11404FF47A7190FBF1F2CB
:100DD00001FB1200642190FBF1F201FB12000A21D9
:100DE00090FBF1F201FB12003030C0B28DF815001B
:100DF00000208DF816004FF6FF70431104AA16214B
:100E000000904FF4837004F006FB4FF6FF7043111F
:100E1000334A662100904FF4837004F0FCFA3148A5
:100E20000088401C2F49088039480068FA2191FB4E
:100E3000F0F02D49098808442A49098888423FF77B
:100E400079AE00F035F94FF4FA7001F058FA3348F2
:100E5000008842F2107190FBF1F03030C0B28DF892
:100E600018002E48008890FBF1F201FB12004FF4AD
:100E70007A7190FBF1F03030C0B28DF8190027483C
:100E8000008842F2107190FBF1F201FB12004FF466
:100E90007A7190FBF1F201FB1200642190FBF1F0FA
:100EA0003030C0B28DF81B001C48008842F210712F
:100EB00090FBF1F201FB12004FF47A7190FBF1F21A
:100EC00001FB1200642190FBF1F201FB12000A21E8
:100ED00090FBF1F03030C0B28DF81C000F481FE0DD
:100EE00010000020000000209C020020A102002031
:100EF000A402002028000020A0060020A802002054
:100F00000000C84104000020080000200000484301
:100F100038000020B802002000F07F452A000020A1
:100F2000008842F2107190FBF1F201FB12004FF4C5
:100F30007A7190FBF1F201FB1200642190FBF1F257
:100F400001FB12000A2190FBF1F201FB120030308C
:100F5000C0B28DF81D0000208DF81E004FF6FF7006
:100F6000431106AA3E2100904FF4837004F053FA17
:100F700004F08DFB04F0CBFB0349088004F024FC53
:100F8000054600BF03E400002A00002010B5082138
:100F9000FE4801F07CFB1021FC4801F078FB202189
:100FA000FA4801F074FB10BD10B50821F74801F0B4
:100FB0006EFB1021F54801F06AFB2021F34801F097
:100FC00068FB10BD10B50821F04801F060FB10214E
:100FD000EE4801F05EFB2021EC4801F058FB10BD0B
:100FE00010B50821E94801F052FB1021E74801F053
:100FF00050FB2021E54801F04CFB10BD10B5082145
:10100000E24801F046FB1021E04801F040FB2021BE
:10101000DE4801F03CFB10BD10B50821DB4801F0B3
:1010200038FB1021D94801F032FB2021D74801F0CC
:1010300030FB10BD10B50821D44801F02AFB102167
:10104000D24801F026FB2021D04801F020FB10BD42
:1010500010B50821CD4801F01CFB1021CB4801F050
:1010600018FB2021C94801F014FB10BD70B50546DE
:101070000C461646C4F1C80081B23246284603F039
:10108000FFFF70BD2DE9F84306460C4617461D4686
:10109000DDF82080C5F1C80083B2C4F1C80081B278
:1010A0003A463046CDF8008003F0F8FFBDE8F883FB
:1010B00038B5002500244FF6E070B549088000BF20
:1010C0000EE0002507E0B248028829462046FFF7D7
:1010D000CDFF681D85B2C82DF5DB04F1190084B27F
:1010E000FA2CEEDB00240EE0002507E0A848028879
:1010F00021462846FFF7BAFF681D85B2FA2DF5DBB9
:1011000004F1190084B2C82CEEDB4FF6E070A04960
:10111000088008460088C823FA220021009008466B
:1011200004F012F89A4800886423FA2219460090C5
:10113000002003F0B3FF96480088C8237D220021D9
:101140000090104603F0AAFF40F2FF70904908801B
:1011500038BD08B54FF6E0708D4908804FF6FF7036
:1011600003F074FF8A480088C823FA220021009007
:10117000084603F0E9FF864800886423FA221946EE
:101180000090002003F08AFF81480088C8237D2258
:1011900000210090104603F081FF40F2FF707C496F
:1011A0000880C8234FF4AD7200210090FC2003F0AA
:1011B000CBFF4FF6FF7000907548038875A205219C
:1011C0004FF4837004F027F94FF6FF7000907048D9
:1011D000038872A22D214FF4837004F01CF94FF69E
:1011E000FF7000906A4803886EA255214FF4837007
:1011F00004F011F94FF6FF700090654803886CA267
:101200007D214FF4837004F006F94FF6E0706049D9
:1012100008800020C82340F28F12014600904FF44E
:10122000AE7003F091FF5A48008814234FF4C67241
:101230000221009040F25F1003F086FF54480088BE
:1012400042234FF4C6721E21009040F25F1003F05B
:101250007BFF4F48008870234FF4C6724C210090EA
:1012600040F25F1003F070FF4FF6FF7000904848A7
:101270000388524A04214FF4B17004F0CCF84FF6C1
:10128000FF700090424803884DA220214FF4B170B6
:1012900004F0C1F84FF6FF7000903D4803884AA261
:1012A0004E214FF4B17004F0B6F84FF6FF70009085
:1012B00047480068401E00EB4000464901EB4002F1
:1012C0004FF6E0735E214FF4B17004F0A4F84FF6CE
:1012D000FF7000904048007800EB40003F49421802
:1012E0004FF6E07330214FF4B17004F094F84FF6EC
:1012F000FF7000903A48007800EB80002F4901EB26
:1013000040024FF6E07304214FF4B17004F083F80B
:101310004FF6E0701E4908804FF61F00EC234FF493
:10132000C772CA210090002003F00EFF1F20E623A1
:101330004C22CD210090022003F0FBFF1F20E6236A
:10134000A622CD2100905C2003F0F3FF1F20E623AE
:101350004FF48072CD210090B62003F0EAFF1F20E9
:10136000E6234FF4AD72CD2100904FF4887003F066
:10137000E0FF40F2FF70E6234C22CD2100900220D6
:1013800003F0E2FE1F20009001482BE00010014016
:1013900090020020562856293A0000005670702806
:1013A00056293A004672657128487A293A000000A9
:1013B000647574792825293A000000005201002044
:1013C00020534A200000000043204220410000003A
:1013D0004000002022010020450000207A0100206A
:1013E000440000200388FD4AD221042004F013F8B1
:1013F0001F200090FA480388FA4AD2215E2004F0A8
:101400000AF81F200090F6480388F74AD221B82036
:1014100004F001F81F200090F1480388F3A2D221C4
:101420004FF4897003F0F7FF08BD1CB50021084692
:1014300001F096F90120009000208DF804000820AA
:101440008DF8050001208DF80600684601F0A4FD26
:101450000321042001F084F90820009000208DF879
:1014600004000C208DF8050001208DF80600684668
:1014700001F092FD0421084601F072F9102000905D
:1014800000208DF804000C208DF8050001208DF857
:101490000600684601F080FD0221042001F060F999
:1014A0000420009000208DF804000C208DF8050029
:1014B00001208DF80600684601F06EFD1CBD10B5D8
:1014C00000241BE0CC4830F814000112CB4801F096
:1014D0008DFC00BF8021C94801F0F6FC0028F9D03E
:1014E000C54810F81410C54801F080FC00BF8021E9
:1014F000C24801F0E9FC0028F9D0641CB4F5207F53
:10150000E0DB10BD08B50A2000F0F9FE0121BC485F
:1015100001F0A3F8002837D0BA480078401CB94938
:1015200008700020B8490860B8490860B5480078DC
:10153000052802D10020B3490870B248007820BBCA
:1015400040F2FF70E6234C22CD210090022003F0F0
:10155000FBFD1F20E623A622CD2100905C2003F096
:10156000F3FD1F20E6234FF48072CD210090B620BA
:1015700003F0EAFD1F20E6234FF4AD72CD21009069
:101580004FF4887003F0E0FDE6E09E480078012803
:1015900024D11F20E6234C22CD210090022003F00D
:1015A000D3FD40F2FF70E623A622CD2100905C20FF
:1015B00003F0CAFD1F20E6234FF48072CD21009076
:1015C000B62003F0C1FD1F20E6234FF4AD72CD21FC
:1015D00000904FF4887003F0B7FDBDE089480078B3
:1015E000022835D11F20E6234C22CD210090022075
:1015F00003F0AAFD1F20E623A622CD2100905C2047
:1016000003F0A2FD40F2FF70E6234FF48072CD217B
:101610000090B62003F098FD1F20E6234FF4AD7232
:10162000CD2100904FF4887003F08EFD00217848A2
:1016300003F03BFA0021774802F05EF90120764979
:101640000860764801687648006804F03AF983E05B
:101650006C48007803283FD11F20E6234C22CD217F
:101660000090022003F070FD1F20E623A622CD216A
:1016700000905C2003F068FD40F2FF70E6234FF419
:101680008072CD210090B62003F05EFD1F20E6237E
:101690004FF4AD72CD2100904FF4887003F054FDEB
:1016A0001F204FF6E073504A0A32D2210090B82032
:1016B00003F0B1FE0021564803F0F7F90021554828
:1016C00002F01AF90120544908605448016854484E
:1016D000006804F0F6F83FE04A48007804283BD15F
:1016E0001F20E6234C22CD210090022003F02CFD88
:1016F0001F20E623A622CD2100905C2003F024FDCC
:101700001F20E6234FF48072CD210090B62003F015
:101710001BFD40F2FF70E6234FF4AD72CD21009027
:101720004FF4887003F010FD1F204FF6E0732E4A2F
:10173000D2210090B82003F06EFE0021344803F05F
:10174000B4F90021334802F0D7F80020324908608C
:101750003349086031490860012001F094FC08BD5C
:1017600008B5642000F0CBFD04212E4800F075FF81
:10177000002831D12C480078401C2B4908700120EA
:101780002249086028480078032802D10020264911
:1017900008702548007800BB002014234FF4C6725F
:1017A0000221009040F25F1003F0CEFC4FF6E07093
:1017B00042234FF4C6721E21009040F25F1003F0E6
:1017C000C3FC4FF6E07070234FF4C6724C210090BA
:1017D00040F25F1003F0B8FC71E027E0EB0000205E
:1017E0009002002072000020660100206C6F61648E
:1017F0002064617461000000A006002000480040E1
:101800000008014021000020800122423C0000200D
:1018100008000240002C014034000020300000206D
:101820002C0000200018014022000020FA48007817
:10183000012820D14FF6E07014234FF4C672022124
:10184000009040F25F1003F07FFC002042234FF431
:10185000C6721E21009040F25F1003F075FC4FF637
:10186000E07070234FF4C6724C21009040F25F107C
:1018700003F06AFC23E0E848007802281FD14FF605
:10188000E07014234FF4C6720221009040F25F1002
:1018900003F05AFC4FF6E07042234FF4C6721E214B
:1018A000009040F25F1003F04FFC002070234FF4D3
:1018B000C6724C21009040F25F1003F045FC0420FA
:1018C00001F0E1FB08BD08B50A2000F018FD00207A
:1018D000D24908600821D24800F0BFFE00286FD12D
:1018E000D048007808B9012000E00020CE490968FE
:1018F00009B9012100E00021084058B1CB48007827
:10190000401CCA49087008460078082801D1012007
:101910000870AEE0C3480078012800D100E0002044
:10192000C149096809B9012100E00021084058B106
:10193000BF480078401CBE490870084600780E2851
:10194000E7D10120087094E0B6480078022801D160
:10195000012000E00020B449096809B9012100E034
:101960000021084058B1B34800680A30B149086006
:1019700008460168B048006803F0A3FF79E0A94871
:101980000078032801D1012000E00020A649096861
:1019900009B9012100E00021084058B1A6480068BB
:1019A0000A30A5490860A3480168A348006803F00D
:1019B00088FF5EE09B480078042802D1012001E006
:1019C000ACE000209849096809B9012100E0002134
:1019D000084010B1FFF773FD4BE08F48007808B95D
:1019E000012000E0002090490968012900D100E0B1
:1019F0000021084050B19148007818B901208F4962
:101A0000087036E000208D49087032E08248007886
:101A1000012800D100E0002083490968012900D194
:101A200000E00021084050B18548007818B9012035
:101A3000834908701DE000208149087019E076484C
:101A40000078022801D1012000E0002076490968D1
:101A5000012900D100E00021084050B17948006818
:101A6000401C7849086008460068092801D1012017
:101A700008601F2000906E480078401E00EB400177
:101A800001EBC000704942184FF6E073D2215E208E
:101A900003F0C1FC1F20009064480078401E00EB5A
:101AA000400101EBC000694942184FF6E073D221B2
:101AB000042003F0B0FC4FF6FF700090614800680E
:101AC000401E00EB4000624901EB40024FF6E0731C
:101AD0005E214FF4B17003F09EFC4FF6FF70009052
:101AE0005748007800EB40005A4942184FF6E0731F
:101AF00030214FF4B17003F08EFC4FF6FF70009070
:101B00004E48007800EB8000534901EB40024FF64D
:101B1000E07304214FF4B17003F07DFC082001F064
:101B2000B2FA08BD08B50A2000F0E9FB00203B49E5
:101B3000091D086010213A4800F08FFD002869D186
:101B40003848007808B9012000E0002036490968CB
:101B500009B9012100E00021084058B1334800785C
:101B6000401E3249087008460078002801D107203D
:101B70000870B7E02B480078012800D100E0002071
:101B80002949096809B9012100E00021084058B13C
:101B900027480078401E264908700846007800282B
:101BA000E7D10D2008709DE01E480078022801D181
:101BB000012000E000201C49096809B9012100E06A
:101BC0000021084058B11B4800680A3819490860CC
:101BD000084601681848006803F073FE82E0114867
:101BE0000078032801D1012000E000200E49096897
:101BF00009B9012100E00021084060B10E480068E9
:101C00000A380D4908600B4801680B48006803F06A
:101C100058FE67E09AE021E0220000208401224281
:101C200000180140210000203C000020230000207B
:101C300020000020300000202C0000204400002064
:101C4000450000204000002046000020D500002074
:101C5000220100207A01002052010020FC48007877
:101C6000042801D1012000E00020FA49096809B9DF
:101C7000012100E000210840A0BBF748007808B926
:101C8000012000E00020F3490968012900D100E0AB
:101C90000021084030BBF0480078012800D100E066
:101CA0000020EC490968012900D100E0002108402A
:101CB000C0B9E9480078022801D1012000E00020E5
:101CC000E4490968012900D100E00021084048B139
:101CD000E2480068401EE14908600846006808B90B
:101CE000082008601F200090DD480078401E00EBAF
:101CF000400101EBC000DB4942184FF6E073D221EE
:101D00005E2003F088FB1F200090D7480078401E1B
:101D100000EB400101EBC000D44942184FF6E073DC
:101D2000D221042003F077FB4FF6FF700090CB48E0
:101D30000068401E00EB4000CD4901EB40024FF629
:101D4000E0735E214FF4B17003F065FB102001F0E9
:101D50009AF908BD08B50121880702F096F8002815
:101D600075D000214FF0804001F0C6FD01218807A9
:101D700002F09CF8BA4800780E2869D2DFE800F03B
:101D80008707101A242D363F49535D69737D05205E
:101D9000B8490860B84908600120B849087077E080
:101DA0000A20B44908600320B34908600120B34900
:101DB00008706DE01420AF4908600220AE49086049
:101DC0000120AE49087063E03220AA490860002073
:101DD000A9490860A94908705AE06420A54908602B
:101DE0000020A5490860A549087051E0C820A14914
:101DF00008600020A0490860A049087048E04FF43E
:101E0000FA709C49086000209B4908609B49087053
:101E10003EE04FF47A7097490860002096490860C8
:101E20009649087034E04FF4FA6092490860002047
:101E300091490860914908702AE041F288308D4943
:101E4000086000208C4908608C49087020E0FEE0A2
:101E50001DE042F210708749086000208649086042
:101E60008649087014E044F620608249086000202A
:101E700081490860814908700AE04CF250307D4980
:101E8000086000207C4908607C49087000E000BFC1
:101E900000BF75480078082826D2DFE800F0250446
:101EA000080C11161B206420754908801DE0C8200D
:101EB0007349088019E04FF4FA707149088014E002
:101EC0004FF47A706E4908800FE04FF4FA606C4965
:101ED00008800AE041F288306949088005E042F252
:101EE00010706749088000E000BF00BF65480078B7
:101EF00010B101280AD104E08021634800F0C7FB3B
:101F000005E08021604800F0C4FB00E000BF00BF96
:101F10005E48007810B101287ED145E040215A4842
:101F200000F0B5FB4D48006809281ED2DFE800F03C
:101F30001D05080B0E1114171A00FFF727F815E0FE
:101F4000FFF732F812E0FFF73DF80FE0FFF748F82F
:101F50000CE0FFF753F809E0FFF75EF806E0FFF743
:101F600069F803E0FFF774F800E000BF00BF3B48EA
:101F70000068401E464A52F820104FF07E5004F090
:101F800043FA444908604FF6FF70009033480068F8
:101F9000401E414901EBC0024FF6E07396214FF419
:101FA000B17003F038FA48E04021374800F071FB87
:101FB0002A48006809281ED2DFE800F01D05080B3A
:101FC0000E1114171A00FEF7E1FF15E0FEF7ECFF03
:101FD00012E0FEF7F7FF0FE0FFF702F80CE0FFF763
:101FE0000DF809E0FFF718F806E0FFF723F803E023
:101FF000FFF72EF800E000BF00BF18480068401E41
:10200000264A52F820104FF07E5004F0FDF9214985
:1020100008604FF6FF7000E00EE000900F48006887
:10202000401E1F4901EBC0024FF6E07396214FF4AA
:10203000B17003F0F0F900E000BF00BF00214FF0E5
:10204000804001F0EDFE0121880701F055FC08BD3C
:10205000210000203C000020220000204000002041
:10206000200000204600002023000020D500002092
:10207000220100201C00002038000020A1020020C6
:1020800028000020440000200010014045000020EE
:10209000A0010020A8020020E0010020C0010020D3
:1020A000200200200CB50020019000906C480068D0
:1020B00040F480306A49086000BF6948006800F455
:1020C000003000900198401C0190009818B90198C8
:1020D000B0F5A06FF1D16248006800F4003010B193
:1020E0000120009001E0002000900098012843D1D9
:1020F0005C48006840F010005A49086008460068D3
:1021000020F0030008600846006840F00200086004
:10211000534840685249486008464068486008464D
:10212000406840F4806048600846406820F47C10B5
:1021300048600846406840F4E81048600846006877
:1021400040F08070086000BF4548006800F00070F3
:102150000028F9D04248406820F003004049486018
:102160000846406840F00200486000BF3C484068B4
:1021700000F00C000828F9D10CBD10B5FFF792FF54
:1021800010BD10B53648006840F0010034490860C1
:1021900008464068344908403149486008460068AC
:1021A000324908402E4908600846006820F4802023
:1021B00008600846406820F4FE0048604FF41F00A5
:1021C0008860FFF7DAFF4FF000602949086010BD12
:1021D00010B5002100200022214B5B6803F00C01A8
:1021E00021B1042906D0082928D107E0214B224C2F
:1021F000236027E01F4B204C236023E0184B5B68D3
:1022000003F47010164B5B6803F48032022303EB77
:10221000904022B9194B4343174C23600DE0104BFB
:102220005B6803F4003323B1144B4343124C236027
:1022300003E0104B4343104C236003E00D4B0E4C66
:10224000236000BF00BF064B5B68C3F303130C4C55
:10225000E15C094B1B68CB40074C236010BD0000BC
:1022600000100240002002400000FFF8FFFFF6FED1
:1022700008ED00E000127A006002002000093D0035
:102280006402002010B56FF0040000F0D4F82E486E
:1022900000682E49B0FBF1F02D490870084600781F
:1022A00000EB4001C1EBC0104FF6FF7101EAC00026
:1022B0002849088010BD0146254A12784A434FF04C
:1022C000E0235A6100229A611A46126942F0010223
:1022D0001A6100BF4FF0E022106900F001021AB14C
:1022E00000F48032002AF5D04FF0E022126922F08B
:1022F00001024FF0E0231A6100229A617047014603
:10230000144A12884A434FF0E0235A6100229A612E
:102310001A46126942F001021A6100BF4FF0E02232
:10232000106900F001021AB100F48032002AF5D0E1
:102330004FF0E022126922F001024FF0E0231A610F
:1023400000229A61704700006002002000127A00AB
:10235000740200207602002009488047094800479F
:10236000FEE7FEE7FEE7FEE7FEE7FEE7FEE7FEE745
:10237000FEE7FEE704480549054A064B70470000A2
:102380008321000831010008000C00200012002009
:10239000000E0020000E002031490143314A116037
:1023A000704770B5002100230F22C47804B32D4C70
:1023B000246804F4E064C4F5E064210AC1F1040374
:1023C000CA40447804FA03F1847814402143090197
:1023D000254C0678A155047804F01F050124AC4073
:1023E00005786D11AD0005F1E025C5F8004109E063
:1023F000047804F01F050124AC401C4D06787611CA
:1024000045F8264070BD1A4A0A400243154B1B1F6F
:102410001A60704739B1134A121D12680243114BFA
:102420001B1D1A6006E00F4A121D126882430D4BF5
:102430001B1D1A607047042808D14FF0E02109697C
:1024400041F004014FF0E022116107E04FF0E0217C
:10245000096921F004014FF0E0221161704700008A
:102460000000FA050CED00E000E400E080E100E08F
:1024700080FFFF1F10B50446CC48844208D10121DB
:10248000042000F02DFB0021042000F029FB46E091
:10249000C748844208D10121082000F021FB002117
:1024A000082000F01DFB3AE0C248844208D1012117
:1024B000102000F015FB0021102000F011FB2EE091
:1024C000BD48844208D10121202000F009FB0021F1
:1024D000202000F005FB22E0B848844208D1012109
:1024E000402000F0FDFA0021402000F0F9FA16E04B
:1024F000B348844208D10121802000F0F1FA002184
:10250000802000F0EDFA0AE0AE48844207D10121B4
:10251000801500F0E5FA0021A01500F0E1FA10BDE9
:1025200010B50121084600F0DBFA0021012000F07F
:10253000D7FA10BD2DE9F041024600250026002003
:1025400000230024002791F803C00CF00F0591F838
:1025500003C00CF0100CBCF1000F03D091F802C0C6
:102560004CEA050591F800C0BCF1000F31D01468A9
:1025700000202BE04FF0010C0CFA00F3B1F800C082
:102580000CEA03069E4220D183004FF00F0C0CFA98
:1025900003F7BC4305FA03FC4CEA040491F803C0BA
:1025A000BCF1280F06D14FF0010C0CFA00FCC2F868
:1025B00014C00AE091F803C0BCF1480F05D14FF0F8
:1025C000010C0CFA00FCC2F810C0401C0828D1D342
:1025D0001460B1F800C0BCF1FF0F34DD5468002076
:1025E0002EE000F1080C4FF0010808FA0CF3B1F8E6
:1025F00000C00CEA03069E4221D183004FF00F0C6D
:102600000CFA03F7BC4305FA03FC4CEA040491F806
:1026100003C0BCF1280F05D100F1080C08FA0CF832
:10262000C2F8148091F803C0BCF1480F07D100F143
:10263000080C4FF0010808FA0CF8C2F81080401C92
:102640000828CED35460BDE8F0814FF6FF710180B9
:10265000022181700421C1707047024600209368F6
:102660000B400BB1012000E0002070470146886854
:1026700080B2704702460020D3680B400BB10120A6
:1026800000E0002070470146C86880B270470161D1
:102690007047416170470AB1016100E041617047D4
:1026A000C16070474FF480320A4382618161826168
:1026B00082698269704702460020434B18684FF6D2
:1026C0008073184040EA021008433F4B186070477F
:1026D0003E49C8617047F0B50A4600230024002136
:1026E000002500F00046B6F1004F02D1364EF169E8
:1026F00001E0354E7168C0F3034583B200F4401623
:10270000B6F5401F08D121F070612F4E766826F093
:1027100070662D4F7E6012E000F48016B6F5801FC3
:1027200006D1032606FA05F4A14341F0706106E0E4
:10273000460D360103FA06F6B14341F0706122B14D
:10274000460D360103FA06F6314300F00046B6F1B5
:10275000004F02D11C4EF16101E01B4E7160F0BDD3
:1027600030B500228B071C0F0F2303FA04F2164B1F
:1027700008338C1053F824309343134C08348D10D5
:1027800044F8253023468C1053F824308C07240F4E
:1027900000FA04F423430C4C08348D1044F825301F
:1027A00030BD0A49DC310860704700000008014074
:1027B000000C0140001001400014014000180140CD
:1027C000001C0140002001400000014000002042A8
:1027D000DF48006840F00100DD49086008464068B5
:1027E000DC490840DA49486008460068DA49084090
:1027F000D74908600846006820F480200860084631
:10280000406820F4FE0048604FF41F008860704765
:10281000CF49096821F48031CD4A11601146096819
:1028200021F480211160B0F5803F03D0B0F5802FF6
:102830000ED106E0C649096841F48031C44A1160EE
:1028400007E0C349096841F4A021C14A116000E0D2
:1028500000BF00BF704710B50146002200230020D2
:102860004A11012A02D1BA4C236806E0022A02D199
:10287000B74C236A01E0B64C636A01F01F020124E1
:1028800094401C400CB1012000E0002010BD38B580
:10289000002000900024002500BF3120FFF7DBFF5F
:1028A00005460098401C00900098B0F5A06F01D03C
:1028B000002DF2D03120FFF7CEFF08B1012400E057
:1028C0000024204638BD01460020A14A106820F0AF
:1028D000F80040EAC10010607047A04908607047E6
:1028E000024600209A4B586820F47C1042EA01030B
:1028F0001843974B586070479849086670470146DF
:102900000020934A506820F003000843506070474D
:102910008F48406800F00C007047014600208C4A48
:10292000506820F0F00008435060704701460020D6
:10293000874A506820F4E0600843506070470146C1
:102940000020834A506820F4605040EAC100506083
:10295000704729B17E4A527A02437D4B5A7204E095
:102960007B4A527A82437A4B5A7270477B49D831FC
:102970000860704701460020754A506820F44040C6
:102980000843506070470021714A20321170704A2C
:1029900082F82010012802D004280AD104E0012185
:1029A0006B4A2032117005E00521694A203211700E
:1029B00000E000BF00BF7047694908607047644984
:1029C000096A0143624A11627047654944390860E7
:1029D000704730B500210022002400235C4D6D6853
:1029E00005F00C0121B1042905D0082923D105E007
:1029F0005C4D056022E05B4D05601FE0544D6D6845
:102A000005F47012524D6D6805F48034022505EB13
:102A100092421CB9544D554305600BE04C4D6D6816
:102A200005F400351DB1504D5543056002E04D4D94
:102A30005543056002E04B4D056000BF00BF444DAB
:102A40006D6805F0F0010909484D6B5C0568DD40D3
:102A500045603F4D6D6805F4E061090A434D6B5CCC
:102A60004568DD4085603A4D6D6805F46051C90ADE
:102A70003E4D6B5C4568DD40C560354D6D6805F4C5
:102A80004041890B3A4D6B5CC568B5FBF3F50561B8
:102A900030BD29B12E4A526902432D4B5A6104E0E0
:102AA0002B4A526982432A4B5A61704729B1284AFE
:102AB00092690243264B9A6104E0254A9269824357
:102AC000234B9A61704729B1214AD2690243204BB6
:102AD000DA6104E01E4AD26982431D4BDA61704715
:102AE00029B11B4AD2680243194BDA6004E0184A44
:102AF000D2688243164BDA60704729B1144A1269D2
:102B00000243134B1A6104E0114A12698243104BCD
:102B10001A61704712494039086070470F49C8640C
:102B200070470B49C87170470948406A40F080708F
:102B300007494862704701460020054A92680A40EA
:102B40000AB1012000E000207047014988727047F7
:102B5000001002400000FFF8FFFFF6FE00004242B6
:102B60008004424200127A0000093D0078020020F1
:102B70008802002010B50446FB48844209D1012197
:102B80008803FFF7ADFF00214FF48040FFF7A8FF57
:102B900032E0F648844209D101214804FFF7ADFF35
:102BA00000214FF40030FFF7A8FF25E0F0488442F1
:102BB00009D101218804FFF7A0FF00214FF48020F4
:102BC000FFF79BFF18E0EB48844209D10121C804BC
:102BD000FFF793FF00214FF40020FFF78EFF0BE07B
:102BE000E548844208D101210805FFF786FF00214E
:102BF0004FF48010FFF781FF10BD2DE9F04786B03C
:102C000005460E460024A24600BFA1460027B08913
:102C100000B100BF2F462C8A4CF6FF700440F088AC
:102C200004432C82AC894EF6F3100440B0883189FD
:102C30000843718908430443AC81AC8A4FF6FF40D6
:102C40000440B0890443AC8201A8FFF7C2FEC64825
:102C5000874202D1DDF810A001E0DDF80CA0A889C0
:102C600000F4004040B10AEBCA0000EB0A103168E2
:102C70004900B0FBF1F807E00AEBCA0000EB0A10CC
:102C800031688900B0FBF1F86420B8FBF0F0040172
:102C90002009642101FB1089A88900F4004040B19B
:102CA000322000EBC900B0FBF1F000F00700044354
:102CB00008E0322000EB09106421B0FBF1F000F0D5
:102CC0000F0004432C8106B0BDE8F0874FF4165185
:102CD000016000218180C18001810C21418100219E
:102CE0008181704710B502460020108A4FF2FF0321
:102CF00018400B884C8823438C882343CC8823437B
:102D00001843108210BD0021018041808180C18064
:102D1000704721B1828942F40052828104E08289A5
:102D20004DF6FF731A4082817047F0B503460024C8
:102D300000260025002040F66A17B94200D100BFE6
:102D40001846C1F3421401F01F06012707FA06F5E1
:102D5000012C01D10C3004E0022C01D1103000E034
:102D600014301AB107682F43076002E00768AF43C9
:102D70000760F0BD1AB1838A0B43838202E0838A25
:102D80008B4383827047028A4FF6F0731A400282A7
:102D9000028A0A430282704782894FF2FF731A4007
:102DA000828182890A438281704721B1828942F0FF
:102DB0000202828104E082894FF6FD731A4082810B
:102DC0007047028A4FF6DF731A400282028A0A4372
:102DD0000282704721B1028A42F48042028204E0FA
:102DE000028A4BF6FF731A4002827047C1F3080251
:102DF0008280704701468888C0F308007047818947
:102E000041F0010181817047028BD2B20283028BB3
:102E100042EA012202837047028B02F47F4202835E
:102E2000028B0A430283704721B1828A42F020025A
:102E3000828204E0828A4FF6DF731A4082827047F2
:102E400021B1828A42F01002828204E0828A4FF627
:102E5000EF731A408282704721B1828A42F00802E1
:102E6000828204E0828A4FF6F7731A4082827047AA
:102E700021B1828942F40042828103E08289C2F357
:102E80000E028281704721B1828A42F400628282FE
:102E900004E0828A4FF2FF731A4082827047828A6E
:102EA0004FF6FB731A408282828A0A4382827047FD
:102EB00021B1828A42F00202828204E0828A4FF6C5
:102EC000FD731A408282704702460020B1F5007FF0
:102ED00000D100BF13880B400BB1012000E000209F
:102EE000704701F40072B2F5007F00D100BFCA4301
:102EF0000280704770B502460024002300250020A0
:102F000040F66A16B14200D100BFC1F3421501F08C
:102F10001F03012606FA03F3012D02D196893340DF
:102F200006E0022D02D1168A334001E0968A334032
:102F30000C12012606FA04F41688344013B10CB1C1
:102F4000012000E0002070BD10B50022002340F6F3
:102F50006A14A14200D100BF0A1201249440A3B216
:102F6000DC43048010BD00000038014000440040F4
:102F700000480040004C0040005000400020444900
:102F80000860091D0860091D0860091D08604148A6
:102F90003F4914310860704700213D498279002A79
:102FA0003AD00A46126803689A430B461A600A1D13
:102FB000126803689A430B1D1A60027911440A686B
:102FC00003681A430A60324A0832126803689A4357
:102FD0002F4B08331A601A1D126803689A432C4B52
:102FE0000C331A604279102A0ED11A1F1268036836
:102FF0001A43274B08331A601A1D126803681A43D4
:10300000234B0C331A600DE02149427911440A68C0
:1030100003681A430A6005E0027911440A680368EC
:103020009A430A6070470021016001710C214171CF
:103030000021817170471649103109680143144A13
:1030400010321160704701460020114A1432126894
:103050000A400AB1012000E0002070470C491431F9
:1030600008607047014600200022094B1B6803EAF4
:103070000102074B14331B680B4013B10AB1012046
:1030800000E00020704702491431086070470000DA
:1030900000040140FFFF0F0010B50446FE488442C3
:1030A00008D10121C014FFF71BFD0021E014FFF738
:1030B00017FDC4E0B4F1804F08D101210846FFF7A5
:1030C0001CFD00210120FFF718FDB8E0F348844201
:1030D00008D101210220FFF710FD00210220FFF797
:1030E0000CFDACE0EE48844208D101210420FFF73A
:1030F00004FD00210420FFF700FDA0E0E948844220
:1031000008D101210820FFF7F8FC00210820FFF773
:10311000F4FC94E0E448844208D101211020FFF738
:10312000ECFC00211020FFF7E8FC88E0DF48844237
:1031300008D101212020FFF7E0FC00212020FFF72B
:10314000DCFC7CE0DA48844208D101214014FFF71E
:10315000C7FC00216014FFF7C3FC70E0D54884422F
:1031600009D10121C804FFF7BBFC00214FF4002066
:10317000FFF7B6FC63E0D048844209D1012108057D
:10318000FFF7AEFC00214FF48010FFF7A9FC56E0DA
:10319000CA48844209D101214805FFF7A1FC00215A
:1031A0004FF40010FFF79CFC49E0C548844208D169
:1031B00001214020FFF7A1FC00214020FFF79DFCEA
:1031C0003DE0C048844208D101218020FFF795FCF2
:1031D00000218020FFF791FC31E0BB48844208D1F8
:1031E00001218015FFF789FC0021A015FFF785FC60
:1031F00025E0B648844209D101210804FFF770FC9C
:1032000000214FF48030FFF76BFC18E0B048844297
:1032100009D101214804FFF763FC00214FF400307D
:10322000FFF75EFC0BE0AB48844208D10121880423
:10323000FFF756FC00214FF48020FFF751FC10BD32
:1032400000220288944B98420ED0994B98420BD0A2
:10325000B0F1804F08D0914B984205D0904B9842E6
:1032600002D0904B984204D14FF68F731A404B888E
:103270001A438D4B984207D08C4B984204D04FF69E
:10328000FF431A40CB881A4302808B8883850B88C2
:103290000385814B98420BD0854B984208D08B4BCD
:1032A000984205D08A4B984202D08A4B984201D16D
:1032B0000B7A038601238382704770B500240022B5
:1032C0000023058C4FF6FE7635400584028C8388FA
:1032D000048B4FF68F752C40B51E2C400D882C4367
:1032E000751E2A400D892A434D882A436A4DA842FB
:1032F0000BD06F4DA84208D0744DA84205D0744D34
:10330000A84202D0734DA84213D14FF6F7752A4058
:103310004D892A434FF6FB752A408D882A434FF684
:10332000FF652B404FF6FF552B408D892B43CD89F0
:103330002B4383800483CD888586028470BD70B55D
:10334000002400220023058C4FF6EF7635400584DB
:10335000028C8388048B48F6FF752C404FF6FF459E
:103360002C400D884FF6FF7606EA05252C434FF6D4
:10337000DF752A400D8906EA05152A434D8806EABD
:1033800005152A43444DA84202D0494DA8421DD1FB
:103390004FF67F752A404D894FF6FF7606EA0515F0
:1033A0002A434FF6BF752A408D8806EA05152A4341
:1033B0004FF6FF352B404FF2FF752B408D8906EA03
:1033C00085052B43CD8906EA85052B43838004833D
:1033D000CD880587028470BD70B5002400220023CB
:1033E000058C4FF6FF6635400584028C8388848BFC
:1033F0004FF68F752C404FF6FC752C400D882C43F2
:103400004FF6FF552A400D894FF6FF7606EA05254F
:103410002A434D8806EA05252A431F4DA84202D0BB
:10342000234DA8421DD14FF2FF752A404D894FF61A
:10343000FF7606EA05252A434FF6FF352A408D8898
:1034400006EA05252A434EF6FF752B404DF6FF751B
:103450002B408D8906EA05152B43CD8906EA051513
:103460002B4383808483CD888587028470BD70B5AB
:10347000002200230024058C4EF6FF76354005849B
:10348000038C8488828B48F6FF752A404FF6FF45EF
:103490002A400D8820E00000002C0140000400407C
:1034A00000080040000C00400010004000140040E4
:1034B00000340140004C01400050014000540140E4
:1034C00000180040001C0040002000400040014067
:1034D00000440140004801404FF6FF7606EA05250A
:1034E0002A434DF6FF752B400D8906EA05352B431F
:1034F0004D8806EA05352B43FA4DA84202D0FA4D15
:10350000A84208D14BF6FF752C408D894FF6FF7607
:1035100006EA85152C4384808283CD88A0F840502C
:10352000038470BD828B4FF2FF331A408283828BFB
:103530004FF6FF7303EA01231A4382837047F0B505
:103540000C461546002200210026078C4EF6FF7C13
:1035500007EA0C070784828B018C4FF6FF7707EA96
:10356000043640F6FF473A404FF6FF7707EA052753
:103570003A434FF6FF7707EA03373A43D94FB84249
:103580000ED0D94FB8420BD0B0F1804F08D0D74FF2
:10359000B84205D0D64FB84202D0D64FB84206D175
:1035A0004DF6FF77394046F48057394305E047F63A
:1035B000FF57394044F48057394382830184F0BD7A
:1035C000828B4FF6F3731A408283828B0A43828385
:1035D0007047F0B50C461546002200210026078CE6
:1035E0004FF6FF6C07EA0C070784828B018C4FF6BD
:1035F000FF7707EA04264FF60C773A404FF6FF773D
:1036000007EA03172F433A43B64FB8420ED0B64FDE
:10361000B8420BD0B0F1804F08D0B44FB84205D0BB
:10362000B34FB84202D0B34FB84206D14FF6FF575E
:10363000394046F48077394305E04FF2FF5739406F
:1036400044F48077394382830184F0BD028B4FF2CA
:10365000FF331A400283028B4FF6FF7303EA012304
:103660001A4302837047F0B50C461546002200212C
:103670000026078C4FF6EF7C07EA0C070784028BC5
:10368000018C4FF6FF7707EA041640F6FF473A40F1
:103690004FF6FF7707EA03373A434FF6FF7707EA1B
:1036A00005273A438F4FB8420ED08F4FB8420BD008
:1036B000B0F1804F08D08D4FB84205D08C4FB84242
:1036C00002D08C4FB84206D14FF6DF77394046F032
:1036D0001007394305E04FF65F77394044F0100793
:1036E000394302830184F0BD028B4FF6F3731A4015
:1036F0000283028B0A4302837047F0B50C461546DD
:1037000000220021068C4FF6FE773E400684028B95
:10371000018C4FF60C7632407E1C06EA03162E43CF
:103720003243704EB0420ED06F4EB0420BD0B0F16B
:10373000804F08D06D4EB04205D06D4EB04202D0E1
:103740006C4EB04206D14FF6FD76314044F0010692
:10375000314305E04FF6F576314044F00106314340
:1037600002830184F0BD70B505460C465D48854274
:103770000ED05D4885420BD0B5F1804F08D05B4834
:10378000854205D05A48854202D05A48854200D128
:1037900000E000BF208850B92389A28861882846AC
:1037A000FFF7ABFFE1882846FFF79EFF25E0208862
:1037B00004280AD12389A28861882846FFF753FF8D
:1037C000E1882846FFF742FF17E0208808280AD141
:1037D0002389A28861882846FFF7FBFEE1882846F6
:1037E000FFF7EEFE09E02389A28861882846FFF7EB
:1037F000A6FEE1882846FFF795FE70BD2DE9F04151
:1038000005460C4600260127608808B9022600E01C
:103810000026A088012801D1022700E00127208886
:10382000A0B92389A28861882846FFF766FFE1884E
:103830002846FFF759FF23893A4631462846FFF7C5
:1038400012FFE1882846FFF701FF13E02389A288D1
:1038500061882846FFF707FFE1882846FFF7F6FE54
:1038600023893A4631462846FFF747FFE188284634
:10387000FFF73AFFBDE8F0810A884B881A438B882E
:103880001A43CB881A430B891A434B891A438B89F5
:103890001A43A0F8442070474FF6FF718180002141
:1038A0000180C18041800172704700210180418008
:1038B0008180C180018141818181C1817047002166
:1038C00001804180012181800021C18001817047F8
:1038D0000021018041808180C180018141818181FD
:1038E00070470000002C01400034014000040040FB
:1038F00000080040000C004021B1028842F00102A3
:10390000028004E002884FF6FE731A40028070477E
:1039100031B1B0F8442042F40042A0F8442005E060
:10392000B0F84420C2F30E02A0F8442070471AB148
:1039300083890B43838102E083898B4383817047B2
:103940008182704741EA0203A0F8483070471AB1FB
:1039500083890B43838102E083898B438381704792
:1039600001894FF6F8721140018170470A46002123
:1039700001894FF68F73194011430181704730B5AB
:1039800004460D4629462046FFF7F0FF208940F007
:103990000700208130BD2DE9F04104460D46164652
:1039A0001F46602D06D13B46012231462046FFF7D7
:1039B0005AFE05E03B46012231462046FFF79DFEB8
:1039C00029462046FFF7D2FF208940F007002081DA
:1039D000BDE8F08130B50C4600210189C9B24FF62F
:1039E000FF7505EA0325154325432943018130BDB1
:1039F0002DE9F04105460E461746984600244346F9
:103A00003A4631462846FFF7E5FF2C894FF6F87015
:103A1000044044F007044FF68F70044044F07004F3
:103A20002C81BDE8F081F0B504460D4616461F46D0
:103A30003B46324629462046FFF7CCFF208940F41A
:103A400080402081F0BD0185828270470A460021B6
:103A500001884FF68F731940114301807047F0B50C
:103A60000C4615461E460021002200230189028BC8
:103A7000038C4FF6F877394021434FF6FC473A4024
:103A800040F201173A434FF6DD773B404FF6FF77A0
:103A900007EA06172F433B43018102830384F0BDED
:103AA0000A460021018B4FF68F73194011430183A1
:103AB00070470A460021018B48F6FF7319404FF604
:103AC000FF7303EA02231943018370470A4600216A
:103AD000818B4FF68F7319401143818370470A46DB
:103AE0000021818B48F6FF7319404FF6FF7303EAFC
:103AF000022319438183704721B1028842F080027A
:103B0000028004E002884FF67F731A4002807047FB
:103B100021B1828842F00402828004E082884FF65C
:103B2000FB731A408280704721B1828842F00802FC
:103B3000828004E082884FF6F7731A4082807047D3
:103B400021B1828842F00102828004E082884FF62F
:103B5000FE731A40828070470A460021018B4FF69F
:103B6000F77319401143018370470A460021018B06
:103B70004FF2FF7319404FF6FF7303EA0223194314
:103B8000018370470A460021818B4FF6F773194075
:103B90001143818370470A460021818B4FF2FF73E6
:103BA00019404FF6FF7303EA0223194381837047DC
:103BB0000A460021018B4FF6FB7319401143018324
:103BC00070470A460021018B4FF6FF3319404FF62C
:103BD000FF7303EA02231943018370470A46002159
:103BE000818B4FF6FB7319401143818370470A465E
:103BF0000021818B4FF6FF3319404FF6FF7303EA24
:103C000002231943818370470A460021018B4FF636
:103C10007F7319401143018370470A460021018BCD
:103C2000C1F30E014FF6FF7303EA02231943018328
:103C300070470A460021818B4FF67F73194011436C
:103C4000818370470A460021818BC1F30E014FF634
:103C5000FF7303EA02231943818370470A46002158
:103C6000018C4FF6FD7319401143018470470A46D9
:103C70000021018C4FF6F7731940114301847047FE
:103C80000A460021018C4FF6DF7319404FF6FF738F
:103C900003EA02131943018470470A460021018C8C
:103CA0004FF67F7319404FF6FF7303EA021319436F
:103CB000018470470A460021018C4FF6FF531940DA
:103CC0004FF6FF7303EA02231943018470470A4643
:103CD0000021018C4FF2FF7319404FF6FF7303EA86
:103CE00002231943018470470A460021018C4DF6D6
:103CF000FF7319404FF6FF7303EA0233194301843F
:103D0000704730B5002301248C40A3B2048C9C433F
:103D10000484048C02FA01F5ADB22C43048430BD56
:103D200030B5002304248C40A3B2048C9C4304844B
:103D3000048C02FA01F5ADB22C43048430BD70B599
:103D40000346002000241846183001258D40ACB2EF
:103D50001D8CA5431D8409B1082909D100EB610020
:103D6000056825F0700505600568154305600EE0DF
:103D70000D1FC5F34E052844056825F4E045056090
:103D800005684FF6FF7606EA02263543056070BDEA
:103D900021B1028842F00202028004E002884FF65C
:103DA000FD731A400280704721B1028842F004027C
:103DB000028004E002884FF6FB731A4002807047CD
:103DC00021B1828842F08002828004E082884FF62E
:103DD0007F731A408280704702884FF6F7731A404B
:103DE000028002880A430280704782884FF68F73F0
:103DF0001A40828082880A438280704702894FF687
:103E0000F8731A40028102890A43028170470289CD
:103E10004FF67F731A40028102890A43028170477C
:103E2000818470478185704781867047018770471C
:103E300081877047A0F84010704702884FF6FF4313
:103E40001A40028002880A43028070470146888E29
:103E500070470146088F70470146888F70470146BA
:103E6000B1F8400070470146888C70470146088DC4
:103E7000704702460020138A0B400BB1012000E07E
:103E800000207047CA430282704730B502460020C6
:103E900000230024158A05EA0103958905EA010437
:103EA00013B10CB1012000E0002030BDCA430282F2
:103EB0007047000030B943F2DB028100A1F1C0413C
:103EC0000A6005E043F2D2028100A1F1C0410A601C
:103ED0006FF07042411C8900A1F1C0410A6081006D
:103EE000A1F1C041C1F80421704710280AD118215E
:103EF0004FF020421166402151664FF0FC3191662F
:103F0000D16610E01821F74A116040214FF020429D
:103F1000C2F884104FF0FC31F24A083211604FF0C1
:103F20002042C2F88C1070471820EE4920310860FA
:103F300000200906C1F8A4004FF0FC30E9492831FF
:103F40000860091D0860091D08607047D0E901126A
:103F50001143C268114302691143426911438269E6
:103F60001143C2691143026A1143426A1143826AD2
:103F70001143C26A1143026B114302689200A2F11D
:103F8000C0421160816808290BD101688900A1F144
:103F9000C041096841F0400201688900A1F1C041B7
:103FA0000A60416B0968426B526841EA0211426B38
:103FB000926841EA0221426B928941EA0241426BD6
:103FC000128A41EA0251426B127D41EA0261426B60
:103FD000926911430268521C9200A2F1C042116022
:103FE000C16AB1F5804F1BD1816B0968826B526841
:103FF00041EA0211826B926841EA0221826B128AC5
:1040000041EA0251826B127D41EA0261826B926940
:10401000114302689200A2F1C042C2F8041107E005
:104020006FF0704201688900A1F1C041C1F804211C
:10403000704730B5002100220023446844F0080492
:1040400085682C43C5682C4305692C43456944EABF
:104050004524856944EA4531C4692468C5696D68A9
:1040600044EA0524C5692D8944EA0544C5692D7BC8
:1040700044EA0562046A2468056A6D6844EA052416
:10408000056A2D8944EA0544056A2D7B44EA0563E7
:104090000468102C05D14FF020442166A266E36627
:1040A00008E0904C21604FF02044C4F888208D4CEB
:1040B0000C34236030BD016841F01001426841EAD0
:1040C0004221826841EA4231864A20321160C16849
:1040D0000968C268526841EA0221C268128941EA4D
:1040E0000241C268127B41EA02617E4A28321160B5
:1040F000016909680269526841EA0221026912896C
:1041000041EA02410269127B41EA0261754A2C329E
:104110001160416909684269526841EA02214269B5
:10412000128941EA02414269127B41EA02614FF081
:104130002042C2F8B01070470021016002214160A6
:1041400000218160C160016141618161C1610162E1
:104150004FF480514162490081620021C1620163D4
:104160000F21426B1160426B5160FF21426B9160E5
:104170000F21426BD160426B1161426B5161002192
:10418000426B91610F21826B1160826B5160FF2144
:10419000826B91600F21826BD160826B1161826BA7
:1041A00051610021826B91617047102101600021F3
:1041B00041608160C160016141618161FC21C2692E
:1041C0001160C2695160C2699160C269D160026ABE
:1041D0001160026A5160026A9160026AD1607047A0
:1041E0000021016041608160FC21C2681160C268E9
:1041F0005160C2689160C268D16002691160026951
:104200005160026991600269D1604269116042693E
:104210005160426991604269D160704751B182003A
:10422000A2F1C042126842F001038200A2F1C04232
:10423000136009E08200A2F1C04212682A4B1A40C2
:104240008300A3F1C0431A60704799B1102808D1C8
:104250004FF02042126E42F004024FF020431A66E3
:104260001DE0204A126842F004024FF02043C3F8D8
:10427000802014E0102809D14FF02042126E1A4B12
:10428000DB1E1A404FF020431A6608E0154A1268F8
:10429000154BDB1E1A404FF02043C3F880207047B7
:1042A00048B110492031096841F004014FF0204223
:1042B000C2F8A01009E00B49203109680A4AD21E51
:1042C00011404FF02042C2F8A0107047B9B1102839
:1042D0000CD14FF02042126E42F040024FF02043CA
:1042E0001A661FE0800000A0FEFF0F00724A1268ED
:1042F00042F040024FF02043C3F8802012E0102823
:1043000008D14FF02042126E6C4B1A404FF0204300
:104310001A6607E0684A1268684B1A404FF020435B
:10432000C3F88020704701460020102903D14FF0C8
:104330002042506F02E0604A14321068704710B596
:10434000F2B1102807D14FF020435B6E0B434FF0C2
:104350002044636632E0B0F5807F08D1564B1B1DC8
:104360001B680B434FF02044C4F8843026E0524BC6
:1043700024331B680B434FF02044C4F8A4301DE0E5
:10438000102807D14FF020435B6E8B434FF0204441
:10439000636613E0B0F5807F08D1474B1B1D1B6897
:1043A0008B434FF02044C4F8843007E0424B243361
:1043B0001B688B434FF02044C4F8A43010BD10B5E7
:1043C000024600200023102A03D14FF02044636EE0
:1043D00009E0B2F5807F03D1374C241D236802E049
:1043E000354C2434236803EA01040CB1012000E0B9
:1043F000002010BD102807D14FF02042526E8A4392
:104400004FF020435A6613E0B0F5807F08D12A4A66
:10441000121D12688A434FF02043C3F8842007E03E
:10442000254A243212688A434FF02043C3F8A4205F
:10443000704770B502460020002300240025102A92
:1044400003D14FF02046736E09E0B2F5807F03D1AF
:10445000194E361D336802E0174E2436336803EADE
:10446000010403EAD10514B10DB1012000E00020E0
:1044700070BD102808D14FF02042526E22EAD102BE
:104480004FF020435A6615E0B0F5807F09D10A4A03
:10449000121D126822EAD1024FF02043C3F8842093
:1044A00008E0054A2432126822EAD1024FF0204384
:1044B000C3F8A42070470000800000A0BFFF0F00D9
:1044C00010B50446FA48844208D101214015FEF790
:1044D00007FB00216015FEF703FB17E0F548844257
:1044E00008D101210015FEF7FBFA00212015FEF787
:1044F000F7FA0BE0F048844208D10121C803FEF727
:10450000EFFA00214FF40040FEF7EAFA10BD30B593
:104510000246002000235068E84C20400D790C68CA
:1045200044EA0524204350609068E54C2040D1E9DE
:1045300002542C434D7944EA450420439060D06AEC
:1045400020F470000C7C641EE4B2234340EA035064
:10455000D06230BD00210160017141718160C16094
:1045600001210174704721B1826842F0010282602A
:1045700003E0826822F001028260704721B1826804
:1045800042F48072826003E0826822F4807282606A
:10459000704710B50023CBB21AB144681C43446085
:1045A00002E044689C43446010BD816841F008010A
:1045B00081607047014600208A6802F008020AB153
:1045C000012000E000207047816841F00401816013
:1045D0007047014600208A6802F004020AB10120F7
:1045E00000E00020704721B1826842F4A00282609E
:1045F00003E0826822F4A002826070470146002036
:104600008A6802F480020AB1012000E000207047AD
:1046100010B50A4600210023416821F46041531E71
:1046200041EA4331416010BD21B1426842F4006269
:10463000426003E0426822F4006242607047F0B5D5
:1046400004460D4600200021092D11DDE068A5F18A
:104650000A0606EB4607072606FA07F18843A5F186
:104660000A0606EB460603FA06F10843E0600CE092
:10467000206905EB4507072606FA07F1884305EB95
:10468000450603FA06F108432061072A0FDA606B3A
:10469000561E06EB86071F2606FA07F18843561EAC
:1046A00006EB860605FA06F10843606322E00D2A50
:1046B0000FDA206BD61F06EB86071F2606FA07F1D6
:1046C0008843D61F06EB860605FA06F108432063E9
:1046D00010E0E06AA2F10D0606EB86071F2606FA37
:1046E00007F18843A2F10D0606EB860605FA06F1EE
:1046F0000843E062F0BD21B1826842F4801282601A
:1047000003E0826822F48012826070470146C86C20
:1047100080B2704766484C300068704721B14268EB
:1047200042F48062426003E0426822F480624260A8
:10473000704721B1426842F48052426003E042680F
:1047400022F48052426070470A460021816821F4B9
:10475000E04111438160704721B1826842F4004218
:10476000826003E0826822F400428260704721B1D7
:10477000826842F40212826003E0826822F402122C
:1047800082607047014600208A6802F400120AB174
:10479000012000E000207047F0B5044615460020D7
:1047A00000220026092911DDE068A1F10A0707EBC4
:1047B000470C072707FA0CF29043A1F10A0707EB11
:1047C000470703FA07F21043E0600CE0206901EBB1
:1047D000410C072707FA0CF2904301EB410703FA5B
:1047E00007F210432061A06BC0F30156EF1C06F1E5
:1047F000010CA7EB0C0707EB870C1F2707FA0CF23D
:104800009043EF1C06F1010CA7EB0C0707EB8707A1
:1048100001FA07F21043A063F0BD10B50A4600216B
:104820000023816B21F44011531E41EA035181633F
:1048300010BD08B5002300930090009B0B4400932B
:10484000009B1A6008BD08B5024600200090009247
:1048500001F12800009B184400900098006880B285
:1048600008BD0A4600214168164B194011434160BA
:1048700070474162826270470A460021416821F018
:104880001F0111434160704740B10949083109686F
:1048900041F40001064A0832116007E0044908317A
:1048A000096821F40001024A0832116070470000D3
:1048B0000024014000280140003C0140FFFEF0FFC1
:1048C000FDF7F1FFFFFD3FFF0246002013680B409C
:1048D0000BB1012000E000207047CA43026070471E
:1048E00070B502460020002300240B125568CEB29A
:1048F00005EA060415681D4015B10CB1012000E061
:10490000002070BD00220A12D343036070470000EC
:1049100001684FF6FE7211400160002101604160A4
:104920008160C1608D49884208D18C490839496845
:1049300041F00F01894A083A51608AE087491431F1
:10494000884208D185490839496841F0F001834A15
:10495000083A51607DE081492831884208D17F4979
:104960000839496841F470617C4A083A516070E046
:104970007A493C31884208D178490839496841F47C
:104980007041764A083A516063E074495031884278
:1049900008D172490839496841F470216F4A083AD0
:1049A000516056E06D496431884208D16B4908393D
:1049B000496841F47001694A083A516049E0674921
:1049C0007831884208D165490839496841F07061F9
:1049D000624A083A51603CE06149884206D1011FB1
:1049E000096841F00F01021F116032E05C49143187
:1049F000884208D15A49091F096841F0F001584A14
:104A0000121F116025E056492831884208D15449C7
:104A1000091F096841F47061514A121F116018E0C2
:104A20004F493C31884208D14D49091F096841F47A
:104A300070414B4A121F11600BE0494950318842C6
:104A400007D14749091F096841F47021444A121FE0
:104A50001160704710B50022026847F6F0739A4360
:104A60000C6A8B6823430C6923434C6923438C698C
:104A70002343CC6923434C6A23438C6A23431A4360
:104A80000260CB6843600B6883604B68C36010BDF5
:104A90000021016041608160C1600161416181610B
:104AA000C161016241628162704721B1026842F0D6
:104AB0000102026004E002684FF6FE731A400260D1
:104AC00070471AB103680B43036002E003688B432D
:104AD00003607047416070470146486880B2704784
:104AE00001460020002201F080531BB11C4B083B03
:104AF0001A6802E0194B083B1A6802EA01030BB17D
:104B0000012000E00020704700F0805119B11449E5
:104B1000091F086002E011490839486070470146E2
:104B20000020002201F080531BB10D4B083B1A6896
:104B300002E00A4B083B1A6802EA01030BB10120AC
:104B400000E00020704700F0805119B10449091FAE
:104B5000086002E0014908394860704708000240D7
:104B60000804024008B501211020FDF79FFF4FF611
:104B7000FF70ADF8000010208DF8030003208DF8C1
:104B8000020069461E48FDF7D5FC4FF6FF711C4830
:104B9000FDF77DFD08BD70B504460D46BCB919484A
:104BA00002780078401C174B187001209040C043D9
:104BB00081B21348FDF774FD2846FDF7A0FB1148AC
:104BC000007808281AD100200E49087016E00D4818
:104BD00002780078401C0B4B187080201041C043B5
:104BE00081B20748FDF75CFD2846FDF788FB0548C4
:104BF0000078082802D100200249087070BD00002A
:104C0000001001408C02002008B501214FF4B07063
:104C1000FDF74CFF03208DF8020041F20100ADF8D2
:104C2000000018208DF803006946FE48FDF782FC5D
:104C30004FF63370ADF800006946FB48FDF77AFC8B
:104C40004FF68070ADF800006946F848FDF772FC39
:104C500008BD00B597B00220019000200290052009
:104C60000390002006900490012005900007079013
:104C70000620089000200A9010200B90000211904E
:104C8000800013900020099001A815901690012132
:104C90000802FDF7FEFE08A8FFF758F901210620DB
:104CA000FFF7BCFA17B000BDE14908807047E04942
:104CB000891C08807047DE49891C0880704710B540
:104CC000FFF7A2FFFFF7C5FF4CF2503401E0601E72
:104CD00084B2002CFBDC4CF2503401E0601E84B244
:104CE000002CFBDC4CF2503401E0601E84B2002C3E
:104CF000FBDC4CF2503401E0601E84B2002CFBDC83
:104D00004CF2503401E0601E84B2002CFBDC4CF20B
:104D1000503401E0601E84B2002CFBDC4CF25034B5
:104D200001E0601E84B2002CFBDC0020FFF7BCFF1A
:104D30000020FFF7B9FF0A20FDF7E1FA0020FFF796
:104D4000B3FF0020FFF7B0FF0020FFF7ADFF00200A
:104D5000FFF7AAFF0020FFF7A7FF0020FFF7A4FF3F
:104D60000020FFF7A1FF0020FFF79EFF0A20FDF7BC
:104D7000C6FA4FF48060FFF797FF4FF4C440FFF787
:104D800096FF0820FFF790FF40F60800FFF78FFF1F
:104D90004FF44070FFF788FF0520FFF788FF40F2CF
:104DA0000130FFF781FF44F60640FFF780FF40F235
:104DB0000230FFF779FF40F20260FFF778FF40F220
:104DC0000330FFF771FF40F20C50FFF770FF4FF414
:104DD0004170FFF769FF4FF44C50FFF768FF40F256
:104DE0000530FFF761FF40F60540FFF760FF40F236
:104DF0000630FFF759FF44F20620FFF758FF40F254
:104E00000730FFF751FF40F20C60FFF750FF4FF4FF
:104E10004270FFF749FF4FF4A060FFF748FF40F2F0
:104E20000930FFF741FF3320FFF741FF1020FFF764
:104E30003BFF1420FFF73BFF1120FFF735FF40F247
:104E40000110FFF734FF1220FFF72EFF0020FFF7BD
:104E50002EFF1320FFF728FF0120FFF728FF4FF454
:104E60008070FFF721FF4FF44C70FFF720FF40F2F6
:104E70000110FFF719FF40F24720FFF718FF40F23B
:104E80000310FFF711FF4FF48050FFF710FF4FF4AE
:104E90002070FFF709FF4FF45E40FFF708FF4FF463
:104EA0008170FFF701FF4DF2B010FFF700FF0A20FD
:104EB000FDF725FA0120FFF7F7FE0020FFF7F7FEC8
:104EC0000220FFF7F1FE4FF48070FFF7F0FE0320A1
:104ED000FFF7EAFE41F23800FFF7E9FE0920FFF78D
:104EE000E3FE0120FFF7E3FE0C20FFF7DDFE0020CC
:104EF000FFF7DDFE9020FFF7D7FE4FF40040FFF7ED
:104F0000D6FE0F20FFF7D0FE0020FFF7D0FE4FF4B3
:104F10000470FFF7C9FE0020FFF7C9FE40F2112020
:104F2000FFF7C2FEEF20FFF7C2FE40F21220FFF7AC
:104F3000BBFE0020FFF7BBFE40F21320FFF7B4FEDC
:104F400040F28F10FFF7B3FE4FF4A060FFF7ACFE06
:104F50000020FFF7ACFE40F20150FFF7A5FE002055
:104F6000FFF7A5FE40F20250FFF79EFE5F20FFF71D
:104F70009EFE40F20140FFF797FE0120FFF797FEEB
:104F800040F20440FFF790FE0020FFF790FE0A2059
:104F9000FDF7B5F90720FFF787FE4FF48070FFF7A4
:104FA00086FE0A20FDF7ABF94FF40070FFF77CFE98
:104FB0000020FFF77CFE40F20120FFF775FE002085
:104FC000FFF775FE0A20FDF79AF940F20220FFF77D
:104FD0006BFE10BD30B505460C4640F21220FFF7BF
:104FE00063FE2846FFF763FE40F21320FFF75CFEE6
:104FF0001046FFF75CFE4FF40470FFF755FE2046A5
:10500000FFF755FE40F21120FFF74EFE1846FFF75E
:105010004EFE40F20120FFF747FE2846FFF747FE0D
:1050200008E0000000200140001401400018014089
:10503000FE07006C4FF40070FFF736FE2046FFF7C6
:1050400036FE40F20220FFF72FFE30BD70B5064657
:10505000EF2340F28F1200210846FFF7BBFF002428
:105060000AE0002504E03046FFF725FE681C85B203
:10507000F02DF8DB601C84B2B4F5C87FF1DB70BDA5
:1050800070B504460D4616462B4622462946204654
:10509000FFF7A0FF3046FFF70EFE70BD2DE9FF4F72
:1050A00085B081468A460020039083460798A0EB8E
:1050B00009050898A0EB0A06CDF80490CDF808A0E1
:1050C000002D01DD012705E00DB9002702E04FF0BA
:1050D000FF376D42002E02DD4FF0010806E016B9E1
:1050E0004FF0000802E04FF0FF387642B54201DD94
:1050F0002C4600E03446002004901EE0129ADDE9C0
:105100000101FFF7BDFF039828440390B3440398BF
:10511000A04206DD0398001B03900198384480B23A
:105120000190A34505DDABEB040B0298404480B22F
:1051300002900498401C80B20490611C049888423C
:10514000DCDD09B0BDE8F08F2DE9F84305460E46D9
:1051500017469846089C33463A46314628460094FE
:10516000FFF79CFF43462A46314628460094FFF746
:1051700095FF43463A46414628460094FFF78EFF86
:1051800043463A46314638460094FFF787FFBDE86C
:10519000F88370B504460D46164632462946204629
:1051A000FFF76EFF70BD2DE9F05F07460D4616460E
:1051B0009846AB4600243BE0102C05DABA4901EBD7
:1051C000461010F8049009E0012000EB4600B649B3
:1051D00001EB0011A4F1100011F800904FF0000A4B
:1051E00020E009F0800028B1424629463846FFF702
:1051F000D0FF05E048F2304229463846FFF7C9FFA4
:105200004FEA49604FEA1069681C85B2A5EB0B00B4
:10521000102803D15D46781C87B206E00AF1010030
:1052200000F0FF0ABAF1080FDBDB00BF601CC4B25C
:10523000202CC1DBBDE8F09F2DE9F05F07460D464D
:1052400016469846AB46002450E0182C09DA06EBC7
:10525000460000EB4000954901EBC00010F80490B7
:105260001AE0302C0CDA06EB4600401C00EB400044
:105270008E4901EBC001A4F1180011F800900BE079
:1052800006EB4600801C00EB4000884901EBC001A2
:10529000A4F1300011F800904FF0000A20E009F06E
:1052A000800028B1424629463846FFF772FF05E0E4
:1052B00048F2304229463846FFF76BFF4FEA496013
:1052C0004FEA1069681C85B2A5EB0B00182803D1C2
:1052D0005D46781C87B206E00AF1010000F0FF0A83
:1052E000BAF1080FDBDB00BF601CC4B2482CACDB9A
:1052F000BDE8F09F70B5322005460646002415E053
:1053000040F2FF73224632213046FFF74CFF40F255
:10531000FF73224646212846FFF78EFF06F1100054
:10532000C6B205F11800C5B2601CC4B2072CE7DB99
:1053300070BD2DE9F04704460D4616461F46DDF8C0
:105340002080B44201DCBD4201DDBDE8F0873B4670
:10535000324629462046FFF73DFE301B401C84B2F2
:10536000781B401C85B20BE0A94602E04046FFF7DF
:10537000A2FC5FEA0900A9F101011FFA81F9F5D148
:105380002000A4F101018CB2EED100BFDDE72DE9D0
:10539000F04104460D46174605F1010C1FFA8CF347
:1053A00004F1010C1FFA8CF2A5F1010C1FFA8CF12B
:1053B000A4F1010C1FFA8CF0FFF70CFE002604E0AC
:1053C0003846FFF778FC701CC6B2092EF8DB211DA9
:1053D0008AB2211F88B22B462946FFF7FBFD002623
:1053E00004E03846FFF767FC701CC6B2092EF8DBF4
:1053F000281D83B2281F81B222462046FFF7EAFD0E
:10540000002604E03846FFF756FC701CC6B2092E91
:10541000F8DBBDE8F0812DE9F05F04460E46154645
:1054200098463BE02878203800F0FF0A06F10F008C
:1054300083B2E01D82B231462046FFF7CBFD002744
:105440001FE01B4800EB0A1010F807B04FF00009EE
:1054500012E00BF08000802803D14046FFF72BFCC0
:1054600002E00A98FFF727FC4FF6FF7000EA4B0BAB
:1054700009F1010000F0FF09B9F1080FE9DB781C20
:10548000C7B2102FDDDB6D1C04F1080084B2B4F547
:10549000C47F03DD002406F1100086B228780028BE
:1054A000C0D1BDE8F09F0000726F00085271000883
:1054B000726900080EB541F2DF50ADF8000000201F
:1054C000ADF8020042F21070ADF804000020ADF813
:1054D000060069464FF08040FDF7B2FE01221146FA
:1054E0009007FEF724FA00214FF08040FEF704FAFF
:1054F0000EBD0EB500231A4619462A48FEF793FA48
:105500000020ADF80000ADF802004FF6FF70ADF8D6
:1055100004000020ADF8060069462248FDF790FE21
:10552000012211461F48FEF702FA00211D48FEF72E
:10553000E3F90EBD00B587B03720ADF810000020AC
:10554000ADF812000120ADF814000020ADF81600EF
:1055500004A91548FDF774FE00211348FEF7CCF9A5
:105560006020ADF800000120ADF80200ADF80600A3
:105570000020ADF8080069460B48FDF79EFE0121AA
:105580000948FEF7C5F907B000BD10B5FFF792FF57
:10559000FFF7D0FF10BD10B501218807FEF7ACF969
:1055A00010BD000000040040002C014000B58BB08D
:1055B000FE48FFF7ADF9FE480090FE48019000203C
:1055C00002904FF4207003900020049080200590FA
:1055D0004000069080000790002008904FF4405053
:1055E000099000200A906946F048FFF733FA01213C
:1055F000EE48FFF75AFA0BB000BD00B585B0EC4895
:105600004C38FEF75DFF002000908DF804008DF807
:1056100005000290039001208DF810006946E448CF
:105620004C38FEF774FF0121E1484C38FFF763F86E
:10563000002301220221DE484C38FFF700F805B0B4
:1056400000BD10B5FFF7B2FFFFF7D7FF0121D84823
:105650004C38FEF793FF0121D5484C38FEF783FF05
:10566000D3484C38FEF7A1FF00BFD1484C38FEF7B5
:10567000A1FF0028F9D1CE484C38FEF7A5FF00BFA6
:10568000CB484C38FEF7A5FF0028F9D110BD10B566
:10569000FFF78CFF0021C848FEF7C2FBC74800781F
:1056A000032810DD01223721C348FEF7CCF9C44896
:1056B0000068192190FBF1F0401E84B22146BE48DB
:1056C000FEF7B0FB08E001221146BB48FEF7BBF92C
:1056D0000121B948FEF7A6FB0121B748FEF70CF9F6
:1056E00000BF0220FFF7FCF90028FAD00220FFF7E4
:1056F0000BFA0820FFF7F4F920B10820FFF704FAAD
:10570000FFF7C5FF0021AC48FEF7F6F810BD2DE904
:10571000FF5F4FF0000AD346A6480088A9490860F9
:10572000A4480088A84908604FF0010A1CE0A1487D
:1057300030F81A00A3490968884204D99D4830F816
:105740001A00A04908609B4830F81A009E49096871
:10575000884207D2974830F81A009B4908609B4955
:10576000A1F800A00AF1010ABAF5A07FDFD395499C
:105770000968954A1268881A00F040FF83469448E9
:10578000006800F0A7FD80460022924B00F0A4FCC8
:105790000022914BCDE9000100F046FB06460F4682
:1057A000584600F097FD32463B46CDE9020100F035
:1057B00093FC044600F006FB8346584600F0E6FEE4
:1057C00080B204B0BDE8F09F10B500220021002097
:1057D0007C4B1B687C4C246823445A08012107E059
:1057E000744B33F81130934201D9431C98B2491CD1
:1057F000B1F5207FF4D342F2107343434FF4207489
:1058000093FBF4F398B210BDF8B5002423E073497C
:1058100051F8240000F0BAFE85B2A0B24FF6FF7234
:105820002946FBF723FC6D4A611C52F8210000F069
:10583000ADFE85B2694951F8240000F0A7FE86B29A
:105840004FF6FF70611C8AB20090A0B22B46314621
:10585000FBF718FC641CFA2CD9DBF8BDF8B505463B
:10586000002428E05D4951F8240000F08FFE86B244
:1058700004FB05F188B24FF6FF723146FBF7F6FBE9
:10588000564A611C52F8210000F080FE86B253494E
:1058900051F8240000F07AFE87B24FF6FF70611CC9
:1058A00069438AB204FB05F1009088B23346394659
:1058B000FBF7E8FB641CFA2090FBF5F0A042D1DC7A
:1058C000F8BD2DE9F34F85B00E460025A846002708
:1058D00043480078002867D1FFF796FF1F20414911
:1058E000088006F1C804B7E0059800F06FFE049048
:1058F0003D48008800F082FE2E49039031F81410D4
:1059000040F6E44201FB02F000F060FE01903048F6
:105910000168019800F0BAFE4FF08B41029000F050
:1059200073FD8346314900F0B1FE8246039900F0D1
:105930006BFD8146049900F0F9FC0746059800F0DC
:1059400045FE04902848008800F058FE194A611C62
:10595000039032F8111040F6E44201FB02F000F02F
:1059600035FE01901A480168019800F08FFE8346C9
:105970004FF08B4100F048FD82461C4900F086FE46
:105980000290039900F040FD8146049900F0CEFC9E
:1059900080461749384600F045FF00D2144F0021D9
:1059A000384600F03FFE25E05EE0000008000240BF
:1059B0004C240140A0060020002C014020000020C3
:1059C0001C000020B0020020B40200209C02002035
:1059D000A802002000C8A94000FEAF40B802002085
:1059E000A102002090020020280000200000C841F1
:1059F0000000484300D20027CC49404600F012FF87
:105A000001D2DFF828830021404600F00BFE01D2CE
:105A10004FF00008384600F0B9FD1FFA80F9A8B22F
:105A20001F224946FBF722FB404600F0AFFD1FFA5C
:105A300080F9384600F0AAFD1FFA80FA1F20691C81
:105A40008AB20090A8B24B465146FBF71BFBB84800
:105A500040F825706D1C641C06F5E1708442FFF669
:105A600043AFFBF725FBB2E00025B2480068FFF723
:105A7000F5FE06F1C8049DE0059800F0A7FD04902E
:105A8000AD48008800F0BAFDAC49039031F814101D
:105A900040F6E44201FB02F000F098FD0190A848B6
:105AA0000168019800F0F2FD4FF08B41029000F088
:105AB000ABFC8346A34900F0E9FD8246039900F060
:105AC000A3FC8146049900F031FC0746059800F0DC
:105AD0007DFD04909848008800F090FD974A611C75
